{
  "contractName": "MintContract",
  "abi": [
    {
      "inputs": [],
      "stateMutability": "nonpayable",
      "type": "constructor"
    },
    {
      "inputs": [
        {
          "internalType": "address",
          "name": "sender",
          "type": "address"
        },
        {
          "internalType": "uint256",
          "name": "tokenId",
          "type": "uint256"
        },
        {
          "internalType": "address",
          "name": "owner",
          "type": "address"
        }
      ],
      "name": "ERC721IncorrectOwner",
      "type": "error"
    },
    {
      "inputs": [
        {
          "internalType": "address",
          "name": "operator",
          "type": "address"
        },
        {
          "internalType": "uint256",
          "name": "tokenId",
          "type": "uint256"
        }
      ],
      "name": "ERC721InsufficientApproval",
      "type": "error"
    },
    {
      "inputs": [
        {
          "internalType": "address",
          "name": "approver",
          "type": "address"
        }
      ],
      "name": "ERC721InvalidApprover",
      "type": "error"
    },
    {
      "inputs": [
        {
          "internalType": "address",
          "name": "operator",
          "type": "address"
        }
      ],
      "name": "ERC721InvalidOperator",
      "type": "error"
    },
    {
      "inputs": [
        {
          "internalType": "address",
          "name": "owner",
          "type": "address"
        }
      ],
      "name": "ERC721InvalidOwner",
      "type": "error"
    },
    {
      "inputs": [
        {
          "internalType": "address",
          "name": "receiver",
          "type": "address"
        }
      ],
      "name": "ERC721InvalidReceiver",
      "type": "error"
    },
    {
      "inputs": [
        {
          "internalType": "address",
          "name": "sender",
          "type": "address"
        }
      ],
      "name": "ERC721InvalidSender",
      "type": "error"
    },
    {
      "inputs": [
        {
          "internalType": "uint256",
          "name": "tokenId",
          "type": "uint256"
        }
      ],
      "name": "ERC721NonexistentToken",
      "type": "error"
    },
    {
      "inputs": [
        {
          "internalType": "address",
          "name": "owner",
          "type": "address"
        }
      ],
      "name": "OwnableInvalidOwner",
      "type": "error"
    },
    {
      "inputs": [
        {
          "internalType": "address",
          "name": "account",
          "type": "address"
        }
      ],
      "name": "OwnableUnauthorizedAccount",
      "type": "error"
    },
    {
      "anonymous": false,
      "inputs": [
        {
          "indexed": true,
          "internalType": "address",
          "name": "owner",
          "type": "address"
        },
        {
          "indexed": true,
          "internalType": "address",
          "name": "approved",
          "type": "address"
        },
        {
          "indexed": true,
          "internalType": "uint256",
          "name": "tokenId",
          "type": "uint256"
        }
      ],
      "name": "Approval",
      "type": "event"
    },
    {
      "anonymous": false,
      "inputs": [
        {
          "indexed": true,
          "internalType": "address",
          "name": "owner",
          "type": "address"
        },
        {
          "indexed": true,
          "internalType": "address",
          "name": "operator",
          "type": "address"
        },
        {
          "indexed": false,
          "internalType": "bool",
          "name": "approved",
          "type": "bool"
        }
      ],
      "name": "ApprovalForAll",
      "type": "event"
    },
    {
      "anonymous": false,
      "inputs": [
        {
          "indexed": false,
          "internalType": "uint256",
          "name": "_fromTokenId",
          "type": "uint256"
        },
        {
          "indexed": false,
          "internalType": "uint256",
          "name": "_toTokenId",
          "type": "uint256"
        }
      ],
      "name": "BatchMetadataUpdate",
      "type": "event"
    },
    {
      "anonymous": false,
      "inputs": [
        {
          "indexed": false,
          "internalType": "uint256",
          "name": "_tokenId",
          "type": "uint256"
        }
      ],
      "name": "MetadataUpdate",
      "type": "event"
    },
    {
      "anonymous": false,
      "inputs": [
        {
          "indexed": true,
          "internalType": "address",
          "name": "previousOwner",
          "type": "address"
        },
        {
          "indexed": true,
          "internalType": "address",
          "name": "newOwner",
          "type": "address"
        }
      ],
      "name": "OwnershipTransferred",
      "type": "event"
    },
    {
      "anonymous": false,
      "inputs": [
        {
          "indexed": true,
          "internalType": "address",
          "name": "from",
          "type": "address"
        },
        {
          "indexed": true,
          "internalType": "address",
          "name": "to",
          "type": "address"
        },
        {
          "indexed": true,
          "internalType": "uint256",
          "name": "tokenId",
          "type": "uint256"
        }
      ],
      "name": "Transfer",
      "type": "event"
    },
    {
      "inputs": [
        {
          "internalType": "address",
          "name": "to",
          "type": "address"
        },
        {
          "internalType": "uint256",
          "name": "tokenId",
          "type": "uint256"
        }
      ],
      "name": "approve",
      "outputs": [],
      "stateMutability": "nonpayable",
      "type": "function"
    },
    {
      "inputs": [
        {
          "internalType": "address",
          "name": "owner",
          "type": "address"
        }
      ],
      "name": "balanceOf",
      "outputs": [
        {
          "internalType": "uint256",
          "name": "",
          "type": "uint256"
        }
      ],
      "stateMutability": "view",
      "type": "function"
    },
    {
      "inputs": [
        {
          "internalType": "uint256",
          "name": "tokenId",
          "type": "uint256"
        }
      ],
      "name": "getApproved",
      "outputs": [
        {
          "internalType": "address",
          "name": "",
          "type": "address"
        }
      ],
      "stateMutability": "view",
      "type": "function"
    },
    {
      "inputs": [
        {
          "internalType": "address",
          "name": "owner",
          "type": "address"
        },
        {
          "internalType": "address",
          "name": "operator",
          "type": "address"
        }
      ],
      "name": "isApprovedForAll",
      "outputs": [
        {
          "internalType": "bool",
          "name": "",
          "type": "bool"
        }
      ],
      "stateMutability": "view",
      "type": "function"
    },
    {
      "inputs": [],
      "name": "name",
      "outputs": [
        {
          "internalType": "string",
          "name": "",
          "type": "string"
        }
      ],
      "stateMutability": "view",
      "type": "function"
    },
    {
      "inputs": [],
      "name": "owner",
      "outputs": [
        {
          "internalType": "address",
          "name": "",
          "type": "address"
        }
      ],
      "stateMutability": "view",
      "type": "function"
    },
    {
      "inputs": [
        {
          "internalType": "uint256",
          "name": "tokenId",
          "type": "uint256"
        }
      ],
      "name": "ownerOf",
      "outputs": [
        {
          "internalType": "address",
          "name": "",
          "type": "address"
        }
      ],
      "stateMutability": "view",
      "type": "function"
    },
    {
      "inputs": [],
      "name": "renounceOwnership",
      "outputs": [],
      "stateMutability": "nonpayable",
      "type": "function"
    },
    {
      "inputs": [
        {
          "internalType": "address",
          "name": "from",
          "type": "address"
        },
        {
          "internalType": "address",
          "name": "to",
          "type": "address"
        },
        {
          "internalType": "uint256",
          "name": "tokenId",
          "type": "uint256"
        }
      ],
      "name": "safeTransferFrom",
      "outputs": [],
      "stateMutability": "nonpayable",
      "type": "function"
    },
    {
      "inputs": [
        {
          "internalType": "address",
          "name": "from",
          "type": "address"
        },
        {
          "internalType": "address",
          "name": "to",
          "type": "address"
        },
        {
          "internalType": "uint256",
          "name": "tokenId",
          "type": "uint256"
        },
        {
          "internalType": "bytes",
          "name": "data",
          "type": "bytes"
        }
      ],
      "name": "safeTransferFrom",
      "outputs": [],
      "stateMutability": "nonpayable",
      "type": "function"
    },
    {
      "inputs": [
        {
          "internalType": "address",
          "name": "operator",
          "type": "address"
        },
        {
          "internalType": "bool",
          "name": "approved",
          "type": "bool"
        }
      ],
      "name": "setApprovalForAll",
      "outputs": [],
      "stateMutability": "nonpayable",
      "type": "function"
    },
    {
      "inputs": [
        {
          "internalType": "bytes4",
          "name": "interfaceId",
          "type": "bytes4"
        }
      ],
      "name": "supportsInterface",
      "outputs": [
        {
          "internalType": "bool",
          "name": "",
          "type": "bool"
        }
      ],
      "stateMutability": "view",
      "type": "function"
    },
    {
      "inputs": [],
      "name": "symbol",
      "outputs": [
        {
          "internalType": "string",
          "name": "",
          "type": "string"
        }
      ],
      "stateMutability": "view",
      "type": "function"
    },
    {
      "inputs": [
        {
          "internalType": "uint256",
          "name": "tokenId",
          "type": "uint256"
        }
      ],
      "name": "tokenURI",
      "outputs": [
        {
          "internalType": "string",
          "name": "",
          "type": "string"
        }
      ],
      "stateMutability": "view",
      "type": "function"
    },
    {
      "inputs": [
        {
          "internalType": "address",
          "name": "from",
          "type": "address"
        },
        {
          "internalType": "address",
          "name": "to",
          "type": "address"
        },
        {
          "internalType": "uint256",
          "name": "tokenId",
          "type": "uint256"
        }
      ],
      "name": "transferFrom",
      "outputs": [],
      "stateMutability": "nonpayable",
      "type": "function"
    },
    {
      "inputs": [
        {
          "internalType": "address",
          "name": "newOwner",
          "type": "address"
        }
      ],
      "name": "transferOwnership",
      "outputs": [],
      "stateMutability": "nonpayable",
      "type": "function"
    },
    {
      "inputs": [
        {
          "internalType": "address",
          "name": "recipient",
          "type": "address"
        },
        {
          "internalType": "string",
          "name": "tokenURI",
          "type": "string"
        }
      ],
      "name": "mintNFT",
      "outputs": [
        {
          "internalType": "uint256",
          "name": "",
          "type": "uint256"
        }
      ],
      "stateMutability": "nonpayable",
      "type": "function"
    }
  ],
  "bytecode": "0x608060405234801562000010575f80fd5b503360405180604001604052806005815260200164135e53919560da1b8152506040518060400160405280600381526020016213919560ea1b815250815f90816200005c9190620001a3565b5060016200006b8282620001a3565b5050506001600160a01b0381166200009c57604051631e4fbdf760e01b81525f600482015260240160405180910390fd5b620000a781620000b2565b505f6008556200026b565b600780546001600160a01b038381166001600160a01b0319831681179093556040519116919082907f8be0079c531659141344cd1fd0a4f28419497f9722a3daafe3b4186f6b6457e0905f90a35050565b634e487b7160e01b5f52604160045260245ffd5b600181811c908216806200012c57607f821691505b6020821081036200014b57634e487b7160e01b5f52602260045260245ffd5b50919050565b601f8211156200019e575f81815260208120601f850160051c81016020861015620001795750805b601f850160051c820191505b818110156200019a5782815560010162000185565b5050505b505050565b81516001600160401b03811115620001bf57620001bf62000103565b620001d781620001d0845462000117565b8462000151565b602080601f8311600181146200020d575f8415620001f55750858301515b5f19600386901b1c1916600185901b1785556200019a565b5f85815260208120601f198616915b828110156200023d578886015182559484019460019091019084016200021c565b50858210156200025b57878501515f19600388901b60f8161c191681555b5050505050600190811b01905550565b6113b680620002795f395ff3fe608060405234801561000f575f80fd5b5060043610610106575f3560e01c8063715018a61161009e578063b88d4fde1161006e578063b88d4fde14610215578063c87b56dd14610228578063e985e9c51461023b578063eacabe141461024e578063f2fde38b14610261575f80fd5b8063715018a6146101e15780638da5cb5b146101e957806395d89b41146101fa578063a22cb46514610202575f80fd5b806323b872dd116100d957806323b872dd1461018757806342842e0e1461019a5780636352211e146101ad57806370a08231146101c0575f80fd5b806301ffc9a71461010a57806306fdde0314610132578063081812fc14610147578063095ea7b314610172575b5f80fd5b61011d610118366004610eb2565b610274565b60405190151581526020015b60405180910390f35b61013a61029e565b6040516101299190610f1a565b61015a610155366004610f2c565b61032d565b6040516001600160a01b039091168152602001610129565b610185610180366004610f5e565b610354565b005b610185610195366004610f86565b610363565b6101856101a8366004610f86565b6103f1565b61015a6101bb366004610f2c565b610410565b6101d36101ce366004610fbf565b61041a565b604051908152602001610129565b61018561045f565b6007546001600160a01b031661015a565b61013a610472565b610185610210366004610fd8565b610481565b610185610223366004611098565b61048c565b61013a610236366004610f2c565b6104a4565b61011d61024936600461110f565b6105af565b6101d361025c366004611140565b6105dc565b61018561026f366004610fbf565b610616565b5f6001600160e01b03198216632483248360e11b1480610298575061029882610653565b92915050565b60605f80546102ac9061119e565b80601f01602080910402602001604051908101604052809291908181526020018280546102d89061119e565b80156103235780601f106102fa57610100808354040283529160200191610323565b820191905f5260205f20905b81548152906001019060200180831161030657829003601f168201915b5050505050905090565b5f610337826106a2565b505f828152600460205260409020546001600160a01b0316610298565b61035f8282336106da565b5050565b6001600160a01b03821661039157604051633250574960e11b81525f60048201526024015b60405180910390fd5b5f61039d8383336106e7565b9050836001600160a01b0316816001600160a01b0316146103eb576040516364283d7b60e01b81526001600160a01b0380861660048301526024820184905282166044820152606401610388565b50505050565b61040b83838360405180602001604052805f81525061048c565b505050565b5f610298826106a2565b5f6001600160a01b038216610444576040516322718ad960e21b81525f6004820152602401610388565b506001600160a01b03165f9081526003602052604090205490565b6104676107d9565b6104705f610806565b565b6060600180546102ac9061119e565b61035f338383610857565b610497848484610363565b6103eb33858585856108f5565b60606104af826106a2565b505f82815260066020526040812080546104c89061119e565b80601f01602080910402602001604051908101604052809291908181526020018280546104f49061119e565b801561053f5780601f106105165761010080835404028352916020019161053f565b820191905f5260205f20905b81548152906001019060200180831161052257829003601f168201915b505050505090505f61055b60408051602081019091525f815290565b905080515f0361056c575092915050565b81511561059e5780826040516020016105869291906111d6565b60405160208183030381529060405292505050919050565b6105a784610a1d565b949350505050565b6001600160a01b039182165f90815260056020908152604080832093909416825291909152205460ff1690565b5f6105e56107d9565b600880549081905f6105f683611204565b91905055506106058482610a8d565b61060f8184610aa6565b9392505050565b61061e6107d9565b6001600160a01b03811661064757604051631e4fbdf760e01b81525f6004820152602401610388565b61065081610806565b50565b5f6001600160e01b031982166380ac58cd60e01b148061068357506001600160e01b03198216635b5e139f60e01b145b8061029857506301ffc9a760e01b6001600160e01b0319831614610298565b5f818152600260205260408120546001600160a01b03168061029857604051637e27328960e01b815260048101849052602401610388565b61040b8383836001610af5565b5f828152600260205260408120546001600160a01b039081169083161561071357610713818486610bf9565b6001600160a01b0381161561074d5761072e5f855f80610af5565b6001600160a01b0381165f90815260036020526040902080545f190190555b6001600160a01b0385161561077b576001600160a01b0385165f908152600360205260409020805460010190555b5f8481526002602052604080822080546001600160a01b0319166001600160a01b0389811691821790925591518793918516917fddf252ad1be2c89b69c2b068fc378daa952ba7f163c4a11628f55a4df523b3ef91a4949350505050565b6007546001600160a01b031633146104705760405163118cdaa760e01b8152336004820152602401610388565b600780546001600160a01b038381166001600160a01b0319831681179093556040519116919082907f8be0079c531659141344cd1fd0a4f28419497f9722a3daafe3b4186f6b6457e0905f90a35050565b6001600160a01b03821661088957604051630b61174360e31b81526001600160a01b0383166004820152602401610388565b6001600160a01b038381165f81815260056020908152604080832094871680845294825291829020805460ff191686151590811790915591519182527f17307eab39ab6107e8899845ad3d59bd9653f200f220920489ca2b5937696c31910160405180910390a3505050565b6001600160a01b0383163b15610a1657604051630a85bd0160e11b81526001600160a01b0384169063150b7a0290610937908890889087908790600401611228565b6020604051808303815f875af1925050508015610971575060408051601f3d908101601f1916820190925261096e91810190611264565b60015b6109d8573d80801561099e576040519150601f19603f3d011682016040523d82523d5f602084013e6109a3565b606091505b5080515f036109d057604051633250574960e11b81526001600160a01b0385166004820152602401610388565b805181602001fd5b6001600160e01b03198116630a85bd0160e11b14610a1457604051633250574960e11b81526001600160a01b0385166004820152602401610388565b505b5050505050565b6060610a28826106a2565b505f610a3e60408051602081019091525f815290565b90505f815111610a5c5760405180602001604052805f81525061060f565b80610a6684610c5d565b604051602001610a779291906111d6565b6040516020818303038152906040529392505050565b61035f828260405180602001604052805f815250610ced565b5f828152600660205260409020610abd82826112c4565b506040518281527ff8e1a15aba9398e019f0b49df1a4fde98ee17ae345cb5f6b5e2c27f5033e8ce79060200160405180910390a15050565b8080610b0957506001600160a01b03821615155b15610bca575f610b18846106a2565b90506001600160a01b03831615801590610b445750826001600160a01b0316816001600160a01b031614155b8015610b575750610b5581846105af565b155b15610b805760405163a9fbf51f60e01b81526001600160a01b0384166004820152602401610388565b8115610bc85783856001600160a01b0316826001600160a01b03167f8c5be1e5ebec7d5bd14f71427d1e84f3dd0314c0f7b2291e5b200ac8c7c3b92560405160405180910390a45b505b50505f90815260046020526040902080546001600160a01b0319166001600160a01b0392909216919091179055565b610c04838383610d04565b61040b576001600160a01b038316610c3257604051637e27328960e01b815260048101829052602401610388565b60405163177e802f60e01b81526001600160a01b038316600482015260248101829052604401610388565b60605f610c6983610d65565b60010190505f8167ffffffffffffffff811115610c8857610c88611011565b6040519080825280601f01601f191660200182016040528015610cb2576020820181803683370190505b5090508181016020015b5f19016f181899199a1a9b1b9c1cb0b131b232b360811b600a86061a8153600a8504945084610cbc57509392505050565b610cf78383610e3c565b61040b335f8585856108f5565b5f6001600160a01b038316158015906105a75750826001600160a01b0316846001600160a01b03161480610d3d5750610d3d84846105af565b806105a75750505f908152600460205260409020546001600160a01b03908116911614919050565b5f8072184f03e93ff9f4daa797ed6e38ed64bf6a1f0160401b8310610da35772184f03e93ff9f4daa797ed6e38ed64bf6a1f0160401b830492506040015b6d04ee2d6d415b85acef81000000008310610dcf576d04ee2d6d415b85acef8100000000830492506020015b662386f26fc100008310610ded57662386f26fc10000830492506010015b6305f5e1008310610e05576305f5e100830492506008015b6127108310610e1957612710830492506004015b60648310610e2b576064830492506002015b600a83106102985760010192915050565b6001600160a01b038216610e6557604051633250574960e11b81525f6004820152602401610388565b5f610e7183835f6106e7565b90506001600160a01b0381161561040b576040516339e3563760e11b81525f6004820152602401610388565b6001600160e01b031981168114610650575f80fd5b5f60208284031215610ec2575f80fd5b813561060f81610e9d565b5f5b83811015610ee7578181015183820152602001610ecf565b50505f910152565b5f8151808452610f06816020860160208601610ecd565b601f01601f19169290920160200192915050565b602081525f61060f6020830184610eef565b5f60208284031215610f3c575f80fd5b5035919050565b80356001600160a01b0381168114610f59575f80fd5b919050565b5f8060408385031215610f6f575f80fd5b610f7883610f43565b946020939093013593505050565b5f805f60608486031215610f98575f80fd5b610fa184610f43565b9250610faf60208501610f43565b9150604084013590509250925092565b5f60208284031215610fcf575f80fd5b61060f82610f43565b5f8060408385031215610fe9575f80fd5b610ff283610f43565b915060208301358015158114611006575f80fd5b809150509250929050565b634e487b7160e01b5f52604160045260245ffd5b5f67ffffffffffffffff8084111561103f5761103f611011565b604051601f8501601f19908116603f0116810190828211818310171561106757611067611011565b8160405280935085815286868601111561107f575f80fd5b858560208301375f602087830101525050509392505050565b5f805f80608085870312156110ab575f80fd5b6110b485610f43565b93506110c260208601610f43565b925060408501359150606085013567ffffffffffffffff8111156110e4575f80fd5b8501601f810187136110f4575f80fd5b61110387823560208401611025565b91505092959194509250565b5f8060408385031215611120575f80fd5b61112983610f43565b915061113760208401610f43565b90509250929050565b5f8060408385031215611151575f80fd5b61115a83610f43565b9150602083013567ffffffffffffffff811115611175575f80fd5b8301601f81018513611185575f80fd5b61119485823560208401611025565b9150509250929050565b600181811c908216806111b257607f821691505b6020821081036111d057634e487b7160e01b5f52602260045260245ffd5b50919050565b5f83516111e7818460208801610ecd565b8351908301906111fb818360208801610ecd565b01949350505050565b5f6001820161122157634e487b7160e01b5f52601160045260245ffd5b5060010190565b6001600160a01b03858116825284166020820152604081018390526080606082018190525f9061125a90830184610eef565b9695505050505050565b5f60208284031215611274575f80fd5b815161060f81610e9d565b601f82111561040b575f81815260208120601f850160051c810160208610156112a55750805b601f850160051c820191505b81811015610a14578281556001016112b1565b815167ffffffffffffffff8111156112de576112de611011565b6112f2816112ec845461119e565b8461127f565b602080601f831160018114611325575f841561130e5750858301515b5f19600386901b1c1916600185901b178555610a14565b5f85815260208120601f198616915b8281101561135357888601518255948401946001909101908401611334565b508582101561137057878501515f19600388901b60f8161c191681555b5050505050600190811b0190555056fea2646970667358221220ea51d12f2cf8de775033f184e9743ff592ad6dbac2bc5499b16a035608ef178864736f6c63430008150033",
  "immutableReferences": {},
  "source": "// SPDX-License-Identifier: MIT\r\npragma solidity ^0.8.21;\r\n\r\nimport \"@openzeppelin/contracts/token/ERC721/extensions/ERC721URIStorage.sol\";\r\nimport \"@openzeppelin/contracts/access/Ownable.sol\";\r\n\r\ncontract MintContract is ERC721URIStorage, Ownable {\r\n    uint256 private _nextTokenId; // Token ID counter\r\n\r\n    //  FIX: Correct constructor for OpenZeppelin v5.x\r\n    constructor() ERC721(\"MyNFT\", \"NFT\") Ownable(msg.sender) {\r\n        _nextTokenId = 0; //  Explicitly initialize token ID\r\n    }\r\n\r\n    function mintNFT(address recipient, string memory tokenURI) public onlyOwner returns (uint256) {\r\n        uint256 newItemId = _nextTokenId;\r\n        _nextTokenId++; //  Properly increment token ID\r\n\r\n        _safeMint(recipient, newItemId);\r\n        _setTokenURI(newItemId, tokenURI);\r\n\r\n        return newItemId;\r\n    }\r\n}\r\n",
  "sourcePath": "C:\\Users\\Admin\\Documents\\GitHub\\Group12-COS300049\\mintNFT\\contracts\\mintContract.sol",
  "compiler": {
    "name": "solc",
    "version": "0.8.21+commit.d9974bed.Emscripten.clang"
  },
  "schemaVersion": "3.4.16",
  "updatedAt": "2025-03-04T14:34:52.372Z",
  "devdoc": {
    "errors": {
      "ERC721IncorrectOwner(address,uint256,address)": [
        {
          "details": "Indicates an error related to the ownership over a particular token. Used in transfers.",
          "params": {
            "owner": "Address of the current owner of a token.",
            "sender": "Address whose tokens are being transferred.",
            "tokenId": "Identifier number of a token."
          }
        }
      ],
      "ERC721InsufficientApproval(address,uint256)": [
        {
          "details": "Indicates a failure with the `operator`s approval. Used in transfers.",
          "params": {
            "operator": "Address that may be allowed to operate on tokens without being their owner.",
            "tokenId": "Identifier number of a token."
          }
        }
      ],
      "ERC721InvalidApprover(address)": [
        {
          "details": "Indicates a failure with the `approver` of a token to be approved. Used in approvals.",
          "params": {
            "approver": "Address initiating an approval operation."
          }
        }
      ],
      "ERC721InvalidOperator(address)": [
        {
          "details": "Indicates a failure with the `operator` to be approved. Used in approvals.",
          "params": {
            "operator": "Address that may be allowed to operate on tokens without being their owner."
          }
        }
      ],
      "ERC721InvalidOwner(address)": [
        {
          "details": "Indicates that an address can't be an owner. For example, `address(0)` is a forbidden owner in ERC-20. Used in balance queries.",
          "params": {
            "owner": "Address of the current owner of a token."
          }
        }
      ],
      "ERC721InvalidReceiver(address)": [
        {
          "details": "Indicates a failure with the token `receiver`. Used in transfers.",
          "params": {
            "receiver": "Address to which tokens are being transferred."
          }
        }
      ],
      "ERC721InvalidSender(address)": [
        {
          "details": "Indicates a failure with the token `sender`. Used in transfers.",
          "params": {
            "sender": "Address whose tokens are being transferred."
          }
        }
      ],
      "ERC721NonexistentToken(uint256)": [
        {
          "details": "Indicates a `tokenId` whose `owner` is the zero address.",
          "params": {
            "tokenId": "Identifier number of a token."
          }
        }
      ],
      "OwnableInvalidOwner(address)": [
        {
          "details": "The owner is not a valid owner account. (eg. `address(0)`)"
        }
      ],
      "OwnableUnauthorizedAccount(address)": [
        {
          "details": "The caller account is not authorized to perform an operation."
        }
      ]
    },
    "events": {
      "Approval(address,address,uint256)": {
        "details": "Emitted when `owner` enables `approved` to manage the `tokenId` token."
      },
      "ApprovalForAll(address,address,bool)": {
        "details": "Emitted when `owner` enables or disables (`approved`) `operator` to manage all of its assets."
      },
      "BatchMetadataUpdate(uint256,uint256)": {
        "details": "This event emits when the metadata of a range of tokens is changed. So that the third-party platforms such as NFT market could timely update the images and related attributes of the NFTs."
      },
      "MetadataUpdate(uint256)": {
        "details": "This event emits when the metadata of a token is changed. So that the third-party platforms such as NFT market could timely update the images and related attributes of the NFT."
      },
      "Transfer(address,address,uint256)": {
        "details": "Emitted when `tokenId` token is transferred from `from` to `to`."
      }
    },
    "kind": "dev",
    "methods": {
      "approve(address,uint256)": {
        "details": "See {IERC721-approve}."
      },
      "balanceOf(address)": {
        "details": "See {IERC721-balanceOf}."
      },
      "getApproved(uint256)": {
        "details": "See {IERC721-getApproved}."
      },
      "isApprovedForAll(address,address)": {
        "details": "See {IERC721-isApprovedForAll}."
      },
      "name()": {
        "details": "See {IERC721Metadata-name}."
      },
      "owner()": {
        "details": "Returns the address of the current owner."
      },
      "ownerOf(uint256)": {
        "details": "See {IERC721-ownerOf}."
      },
      "renounceOwnership()": {
        "details": "Leaves the contract without owner. It will not be possible to call `onlyOwner` functions. Can only be called by the current owner. NOTE: Renouncing ownership will leave the contract without an owner, thereby disabling any functionality that is only available to the owner."
      },
      "safeTransferFrom(address,address,uint256)": {
        "details": "See {IERC721-safeTransferFrom}."
      },
      "safeTransferFrom(address,address,uint256,bytes)": {
        "details": "See {IERC721-safeTransferFrom}."
      },
      "setApprovalForAll(address,bool)": {
        "details": "See {IERC721-setApprovalForAll}."
      },
      "supportsInterface(bytes4)": {
        "details": "See {IERC165-supportsInterface}"
      },
      "symbol()": {
        "details": "See {IERC721Metadata-symbol}."
      },
      "tokenURI(uint256)": {
        "details": "See {IERC721Metadata-tokenURI}."
      },
      "transferFrom(address,address,uint256)": {
        "details": "See {IERC721-transferFrom}."
      },
      "transferOwnership(address)": {
        "details": "Transfers ownership of the contract to a new account (`newOwner`). Can only be called by the current owner."
      }
    },
    "version": 1
  },
  "userdoc": {
    "kind": "user",
    "methods": {},
    "version": 1
  }
}