{
  "contractName": "ETH_Transfer",
  "abi": [
    {
      "inputs": [
        {
          "internalType": "address payable",
          "name": "recipient",
          "type": "address"
        }
      ],
      "name": "transferETH",
      "outputs": [],
      "stateMutability": "payable",
      "type": "function"
    }
  ],
  "bytecode": "0x608060405234801561000f575f80fd5b506102238061001d5f395ff3fe60806040526004361061001d575f3560e01c8063d50f6bf014610021575b5f80fd5b61003b60048036038101906100369190610124565b61003d565b005b5f341161007f576040517f08c379a0000000000000000000000000000000000000000000000000000000008152600401610076906101cf565b60405180910390fd5b8073ffffffffffffffffffffffffffffffffffffffff166108fc3490811502906040515f60405180830381858888f193505050501580156100c2573d5f803e3d5ffd5b5050565b5f80fd5b5f73ffffffffffffffffffffffffffffffffffffffff82169050919050565b5f6100f3826100ca565b9050919050565b610103816100e9565b811461010d575f80fd5b50565b5f8135905061011e816100fa565b92915050565b5f60208284031215610139576101386100c6565b5b5f61014684828501610110565b91505092915050565b5f82825260208201905092915050565b7f45544820616d6f756e74206d7573742062652067726561746572207468616e205f8201527f3000000000000000000000000000000000000000000000000000000000000000602082015250565b5f6101b960218361014f565b91506101c48261015f565b604082019050919050565b5f6020820190508181035f8301526101e6816101ad565b905091905056fea264697066735822122023ac330b257da725e18e9ef60df9a97bde134751844b656e72fa195d7e0f2d6764736f6c63430008140033",
  "immutableReferences": {},
  "source": "// SPDX-License-Identifier: MIT\r\npragma solidity ^0.8.0;\r\n\r\ncontract ETH_Transfer {\r\n    function transferETH(address payable recipient) public payable {\r\n        require(msg.value > 0, \"ETH amount must be greater than 0\");\r\n        recipient.transfer(msg.value);\r\n    }\r\n}",
  "sourcePath": "C:\\Users\\Admin\\Documents\\GitHub\\Group12-COS300049\\backend\\contracts\\ETH_Transfer.sol",
  "compiler": {
    "name": "solc",
    "version": "0.8.20+commit.a1b79de6.Emscripten.clang"
  },
  "schemaVersion": "3.4.16",
  "updatedAt": "2025-03-16T05:29:28.000Z",
  "devdoc": {
    "kind": "dev",
    "methods": {},
    "version": 1
  },
  "userdoc": {
    "kind": "user",
    "methods": {},
    "version": 1
  }
}