{
  "contractName": "Faucet",
  "abi": [
    {
      "anonymous": false,
      "inputs": [
        {
          "indexed": true,
          "internalType": "address",
          "name": "from",
          "type": "address"
        },
        {
          "indexed": true,
          "internalType": "address",
          "name": "to",
          "type": "address"
        },
        {
          "indexed": false,
          "internalType": "uint256",
          "name": "value",
          "type": "uint256"
        }
      ],
      "name": "Transferred",
      "type": "event"
    },
    {
      "inputs": [],
      "name": "num",
      "outputs": [
        {
          "internalType": "int256",
          "name": "",
          "type": "int256"
        }
      ],
      "stateMutability": "view",
      "type": "function",
      "constant": true
    },
    {
      "inputs": [],
      "name": "number",
      "outputs": [
        {
          "internalType": "uint256",
          "name": "",
          "type": "uint256"
        }
      ],
      "stateMutability": "view",
      "type": "function",
      "constant": true
    },
    {
      "inputs": [
        {
          "internalType": "address payable",
          "name": "adminAddress",
          "type": "address"
        }
      ],
      "name": "transferETH",
      "outputs": [],
      "stateMutability": "payable",
      "type": "function",
      "payable": true
    }
  ],
  "bytecode": "0x608060405260226000557fffffffffffffffffffffffffffffffffffffffffffffffffffffffffffffff7b60015534801561003957600080fd5b50610354806100496000396000f3fe6080604052600436106100345760003560e01c80634e70b1dc146100395780638381f58a14610064578063d50f6bf01461008f575b600080fd5b34801561004557600080fd5b5061004e6100ab565b60405161005b91906101c2565b60405180910390f35b34801561007057600080fd5b506100796100b1565b60405161008691906101f6565b60405180910390f35b6100a960048036038101906100a49190610274565b6100b7565b005b60015481565b60005481565b600034116100fa576040517f08c379a00000000000000000000000000000000000000000000000000000000081526004016100f1906102fe565b60405180910390fd5b8073ffffffffffffffffffffffffffffffffffffffff163373ffffffffffffffffffffffffffffffffffffffff167fd1ba4ac2e2a11b5101f6cb4d978f514a155b421e8ec396d2d9abaf0bb02917ee3460405161015791906101f6565b60405180910390a38073ffffffffffffffffffffffffffffffffffffffff166108fc349081150290604051600060405180830381858888f193505050501580156101a5573d6000803e3d6000fd5b5050565b6000819050919050565b6101bc816101a9565b82525050565b60006020820190506101d760008301846101b3565b92915050565b6000819050919050565b6101f0816101dd565b82525050565b600060208201905061020b60008301846101e7565b92915050565b600080fd5b600073ffffffffffffffffffffffffffffffffffffffff82169050919050565b600061024182610216565b9050919050565b61025181610236565b811461025c57600080fd5b50565b60008135905061026e81610248565b92915050565b60006020828403121561028a57610289610211565b5b60006102988482850161025f565b91505092915050565b600082825260208201905092915050565b7f4e6f204554482073656e74000000000000000000000000000000000000000000600082015250565b60006102e8600b836102a1565b91506102f3826102b2565b602082019050919050565b60006020820190508181036000830152610317816102db565b905091905056fea26469706673582212200e6a6bfad80f523a05543c6ae8c3a15343ebb65ffdf4ee53d3a65d5ff0a8d8f764736f6c63430008100033",
  "immutableReferences": {},
  "source": "// SPDX-License-Identifier: MIT\r\npragma solidity ^0.8.16;\r\n\r\ncontract Faucet {\r\n    uint public number = 34;\r\n    int public num = -133;\r\n\r\n    // Event for when ETH is transferred\r\n    event Transferred(address indexed from, address indexed to, uint256 value);\r\n\r\n    // Function to allow the transfer of ETH from an address to the admin address\r\n    function transferETH(address payable adminAddress) public payable {\r\n        require(msg.value > 0, \"No ETH sent\");\r\n\r\n        // Emit an event on successful transfer\r\n        emit Transferred(msg.sender, adminAddress, msg.value);\r\n\r\n        // Transfer the sent ETH to the admin address\r\n        adminAddress.transfer(msg.value);\r\n    }\r\n}\r\n",
  "sourcePath": "C:\\Users\\Admin\\Documents\\GitHub\\Group12-COS300049\\backend\\contracts\\Contract.sol",
  "compiler": {
    "name": "solc",
    "version": "0.8.16+commit.07a7930e.Emscripten.clang"
  },
  "schemaVersion": "3.4.16",
  "updatedAt": "2025-03-05T16:32:07.973Z",
  "networkType": "ethereum",
  "devdoc": {
    "kind": "dev",
    "methods": {},
    "version": 1
  },
  "userdoc": {
    "kind": "user",
    "methods": {},
    "version": 1
  }
}