{
  "contractName": "MyNFT",
  "abi": [
    {
      "inputs": [
        {
          "internalType": "string",
          "name": "_baseTokenURI",
          "type": "string"
        }
      ],
      "stateMutability": "nonpayable",
      "type": "constructor"
    },
    {
      "inputs": [
        {
          "internalType": "address",
          "name": "sender",
          "type": "address"
        },
        {
          "internalType": "uint256",
          "name": "tokenId",
          "type": "uint256"
        },
        {
          "internalType": "address",
          "name": "owner",
          "type": "address"
        }
      ],
      "name": "ERC721IncorrectOwner",
      "type": "error"
    },
    {
      "inputs": [
        {
          "internalType": "address",
          "name": "operator",
          "type": "address"
        },
        {
          "internalType": "uint256",
          "name": "tokenId",
          "type": "uint256"
        }
      ],
      "name": "ERC721InsufficientApproval",
      "type": "error"
    },
    {
      "inputs": [
        {
          "internalType": "address",
          "name": "approver",
          "type": "address"
        }
      ],
      "name": "ERC721InvalidApprover",
      "type": "error"
    },
    {
      "inputs": [
        {
          "internalType": "address",
          "name": "operator",
          "type": "address"
        }
      ],
      "name": "ERC721InvalidOperator",
      "type": "error"
    },
    {
      "inputs": [
        {
          "internalType": "address",
          "name": "owner",
          "type": "address"
        }
      ],
      "name": "ERC721InvalidOwner",
      "type": "error"
    },
    {
      "inputs": [
        {
          "internalType": "address",
          "name": "receiver",
          "type": "address"
        }
      ],
      "name": "ERC721InvalidReceiver",
      "type": "error"
    },
    {
      "inputs": [
        {
          "internalType": "address",
          "name": "sender",
          "type": "address"
        }
      ],
      "name": "ERC721InvalidSender",
      "type": "error"
    },
    {
      "inputs": [
        {
          "internalType": "uint256",
          "name": "tokenId",
          "type": "uint256"
        }
      ],
      "name": "ERC721NonexistentToken",
      "type": "error"
    },
    {
      "inputs": [
        {
          "internalType": "address",
          "name": "owner",
          "type": "address"
        }
      ],
      "name": "OwnableInvalidOwner",
      "type": "error"
    },
    {
      "inputs": [
        {
          "internalType": "address",
          "name": "account",
          "type": "address"
        }
      ],
      "name": "OwnableUnauthorizedAccount",
      "type": "error"
    },
    {
      "anonymous": false,
      "inputs": [
        {
          "indexed": true,
          "internalType": "address",
          "name": "owner",
          "type": "address"
        },
        {
          "indexed": true,
          "internalType": "address",
          "name": "approved",
          "type": "address"
        },
        {
          "indexed": true,
          "internalType": "uint256",
          "name": "tokenId",
          "type": "uint256"
        }
      ],
      "name": "Approval",
      "type": "event"
    },
    {
      "anonymous": false,
      "inputs": [
        {
          "indexed": true,
          "internalType": "address",
          "name": "owner",
          "type": "address"
        },
        {
          "indexed": true,
          "internalType": "address",
          "name": "operator",
          "type": "address"
        },
        {
          "indexed": false,
          "internalType": "bool",
          "name": "approved",
          "type": "bool"
        }
      ],
      "name": "ApprovalForAll",
      "type": "event"
    },
    {
      "anonymous": false,
      "inputs": [
        {
          "indexed": true,
          "internalType": "address",
          "name": "previousOwner",
          "type": "address"
        },
        {
          "indexed": true,
          "internalType": "address",
          "name": "newOwner",
          "type": "address"
        }
      ],
      "name": "OwnershipTransferred",
      "type": "event"
    },
    {
      "anonymous": false,
      "inputs": [
        {
          "indexed": true,
          "internalType": "address",
          "name": "from",
          "type": "address"
        },
        {
          "indexed": true,
          "internalType": "address",
          "name": "to",
          "type": "address"
        },
        {
          "indexed": true,
          "internalType": "uint256",
          "name": "tokenId",
          "type": "uint256"
        }
      ],
      "name": "Transfer",
      "type": "event"
    },
    {
      "inputs": [
        {
          "internalType": "address",
          "name": "to",
          "type": "address"
        },
        {
          "internalType": "uint256",
          "name": "tokenId",
          "type": "uint256"
        }
      ],
      "name": "approve",
      "outputs": [],
      "stateMutability": "nonpayable",
      "type": "function"
    },
    {
      "inputs": [
        {
          "internalType": "address",
          "name": "owner",
          "type": "address"
        }
      ],
      "name": "balanceOf",
      "outputs": [
        {
          "internalType": "uint256",
          "name": "",
          "type": "uint256"
        }
      ],
      "stateMutability": "view",
      "type": "function"
    },
    {
      "inputs": [],
      "name": "baseTokenURI",
      "outputs": [
        {
          "internalType": "string",
          "name": "",
          "type": "string"
        }
      ],
      "stateMutability": "view",
      "type": "function"
    },
    {
      "inputs": [
        {
          "internalType": "uint256",
          "name": "tokenId",
          "type": "uint256"
        }
      ],
      "name": "getApproved",
      "outputs": [
        {
          "internalType": "address",
          "name": "",
          "type": "address"
        }
      ],
      "stateMutability": "view",
      "type": "function"
    },
    {
      "inputs": [
        {
          "internalType": "address",
          "name": "owner",
          "type": "address"
        },
        {
          "internalType": "address",
          "name": "operator",
          "type": "address"
        }
      ],
      "name": "isApprovedForAll",
      "outputs": [
        {
          "internalType": "bool",
          "name": "",
          "type": "bool"
        }
      ],
      "stateMutability": "view",
      "type": "function"
    },
    {
      "inputs": [],
      "name": "name",
      "outputs": [
        {
          "internalType": "string",
          "name": "",
          "type": "string"
        }
      ],
      "stateMutability": "view",
      "type": "function"
    },
    {
      "inputs": [],
      "name": "nextTokenId",
      "outputs": [
        {
          "internalType": "uint256",
          "name": "",
          "type": "uint256"
        }
      ],
      "stateMutability": "view",
      "type": "function"
    },
    {
      "inputs": [],
      "name": "owner",
      "outputs": [
        {
          "internalType": "address",
          "name": "",
          "type": "address"
        }
      ],
      "stateMutability": "view",
      "type": "function"
    },
    {
      "inputs": [
        {
          "internalType": "uint256",
          "name": "tokenId",
          "type": "uint256"
        }
      ],
      "name": "ownerOf",
      "outputs": [
        {
          "internalType": "address",
          "name": "",
          "type": "address"
        }
      ],
      "stateMutability": "view",
      "type": "function"
    },
    {
      "inputs": [],
      "name": "renounceOwnership",
      "outputs": [],
      "stateMutability": "nonpayable",
      "type": "function"
    },
    {
      "inputs": [
        {
          "internalType": "address",
          "name": "from",
          "type": "address"
        },
        {
          "internalType": "address",
          "name": "to",
          "type": "address"
        },
        {
          "internalType": "uint256",
          "name": "tokenId",
          "type": "uint256"
        }
      ],
      "name": "safeTransferFrom",
      "outputs": [],
      "stateMutability": "nonpayable",
      "type": "function"
    },
    {
      "inputs": [
        {
          "internalType": "address",
          "name": "from",
          "type": "address"
        },
        {
          "internalType": "address",
          "name": "to",
          "type": "address"
        },
        {
          "internalType": "uint256",
          "name": "tokenId",
          "type": "uint256"
        },
        {
          "internalType": "bytes",
          "name": "data",
          "type": "bytes"
        }
      ],
      "name": "safeTransferFrom",
      "outputs": [],
      "stateMutability": "nonpayable",
      "type": "function"
    },
    {
      "inputs": [
        {
          "internalType": "address",
          "name": "operator",
          "type": "address"
        },
        {
          "internalType": "bool",
          "name": "approved",
          "type": "bool"
        }
      ],
      "name": "setApprovalForAll",
      "outputs": [],
      "stateMutability": "nonpayable",
      "type": "function"
    },
    {
      "inputs": [
        {
          "internalType": "bytes4",
          "name": "interfaceId",
          "type": "bytes4"
        }
      ],
      "name": "supportsInterface",
      "outputs": [
        {
          "internalType": "bool",
          "name": "",
          "type": "bool"
        }
      ],
      "stateMutability": "view",
      "type": "function"
    },
    {
      "inputs": [],
      "name": "symbol",
      "outputs": [
        {
          "internalType": "string",
          "name": "",
          "type": "string"
        }
      ],
      "stateMutability": "view",
      "type": "function"
    },
    {
      "inputs": [
        {
          "internalType": "uint256",
          "name": "tokenId",
          "type": "uint256"
        }
      ],
      "name": "tokenURI",
      "outputs": [
        {
          "internalType": "string",
          "name": "",
          "type": "string"
        }
      ],
      "stateMutability": "view",
      "type": "function"
    },
    {
      "inputs": [
        {
          "internalType": "address",
          "name": "from",
          "type": "address"
        },
        {
          "internalType": "address",
          "name": "to",
          "type": "address"
        },
        {
          "internalType": "uint256",
          "name": "tokenId",
          "type": "uint256"
        }
      ],
      "name": "transferFrom",
      "outputs": [],
      "stateMutability": "nonpayable",
      "type": "function"
    },
    {
      "inputs": [
        {
          "internalType": "address",
          "name": "newOwner",
          "type": "address"
        }
      ],
      "name": "transferOwnership",
      "outputs": [],
      "stateMutability": "nonpayable",
      "type": "function"
    },
    {
      "inputs": [],
      "name": "mint",
      "outputs": [],
      "stateMutability": "nonpayable",
      "type": "function"
    }
  ],
  "bytecode": "0x608060405234801562000010575f80fd5b50604051620028e9380380620028e98339818101604052810190620000369190620003ae565b336040518060400160405280600581526020017f4d794e46540000000000000000000000000000000000000000000000000000008152506040518060400160405280600381526020017f4e46540000000000000000000000000000000000000000000000000000000000815250815f9081620000b3919062000634565b508060019081620000c5919062000634565b5050505f73ffffffffffffffffffffffffffffffffffffffff168173ffffffffffffffffffffffffffffffffffffffff16036200013b575f6040517f1e4fbdf70000000000000000000000000000000000000000000000000000000081526004016200013291906200075b565b60405180910390fd5b6200014c816200016660201b60201c565b5080600890816200015e919062000634565b505062000776565b5f60065f9054906101000a900473ffffffffffffffffffffffffffffffffffffffff1690508160065f6101000a81548173ffffffffffffffffffffffffffffffffffffffff021916908373ffffffffffffffffffffffffffffffffffffffff1602179055508173ffffffffffffffffffffffffffffffffffffffff168173ffffffffffffffffffffffffffffffffffffffff167f8be0079c531659141344cd1fd0a4f28419497f9722a3daafe3b4186f6b6457e060405160405180910390a35050565b5f604051905090565b5f80fd5b5f80fd5b5f80fd5b5f80fd5b5f601f19601f8301169050919050565b7f4e487b71000000000000000000000000000000000000000000000000000000005f52604160045260245ffd5b6200028a8262000242565b810181811067ffffffffffffffff82111715620002ac57620002ab62000252565b5b80604052505050565b5f620002c062000229565b9050620002ce82826200027f565b919050565b5f67ffffffffffffffff821115620002f057620002ef62000252565b5b620002fb8262000242565b9050602081019050919050565b5f5b83811015620003275780820151818401526020810190506200030a565b5f8484015250505050565b5f620003486200034284620002d3565b620002b5565b9050828152602081018484840111156200036757620003666200023e565b5b6200037484828562000308565b509392505050565b5f82601f8301126200039357620003926200023a565b5b8151620003a584826020860162000332565b91505092915050565b5f60208284031215620003c657620003c562000232565b5b5f82015167ffffffffffffffff811115620003e657620003e562000236565b5b620003f4848285016200037c565b91505092915050565b5f81519050919050565b7f4e487b71000000000000000000000000000000000000000000000000000000005f52602260045260245ffd5b5f60028204905060018216806200044c57607f821691505b60208210810362000462576200046162000407565b5b50919050565b5f819050815f5260205f209050919050565b5f6020601f8301049050919050565b5f82821b905092915050565b5f60088302620004c67fffffffffffffffffffffffffffffffffffffffffffffffffffffffffffffffff8262000489565b620004d2868362000489565b95508019841693508086168417925050509392505050565b5f819050919050565b5f819050919050565b5f6200051c620005166200051084620004ea565b620004f3565b620004ea565b9050919050565b5f819050919050565b6200053783620004fc565b6200054f620005468262000523565b84845462000495565b825550505050565b5f90565b6200056562000557565b620005728184846200052c565b505050565b5b8181101562000599576200058d5f826200055b565b60018101905062000578565b5050565b601f821115620005e857620005b28162000468565b620005bd846200047a565b81016020851015620005cd578190505b620005e5620005dc856200047a565b83018262000577565b50505b505050565b5f82821c905092915050565b5f6200060a5f1984600802620005ed565b1980831691505092915050565b5f620006248383620005f9565b9150826002028217905092915050565b6200063f82620003fd565b67ffffffffffffffff8111156200065b576200065a62000252565b5b62000667825462000434565b620006748282856200059d565b5f60209050601f831160018114620006aa575f841562000695578287015190505b620006a1858262000617565b86555062000710565b601f198416620006ba8662000468565b5f5b82811015620006e357848901518255600182019150602085019450602081019050620006bc565b86831015620007035784890151620006ff601f891682620005f9565b8355505b6001600288020188555050505b505050505050565b5f73ffffffffffffffffffffffffffffffffffffffff82169050919050565b5f620007438262000718565b9050919050565b620007558162000737565b82525050565b5f602082019050620007705f8301846200074a565b92915050565b61216580620007845f395ff3fe608060405234801561000f575f80fd5b506004361061011f575f3560e01c8063715018a6116100ab578063b88d4fde1161006f578063b88d4fde146102df578063c87b56dd146102fb578063d547cfb71461032b578063e985e9c514610349578063f2fde38b146103795761011f565b8063715018a61461025f57806375794a3c146102695780638da5cb5b1461028757806395d89b41146102a5578063a22cb465146102c35761011f565b80631249c58b116100f25780631249c58b146101bd57806323b872dd146101c757806342842e0e146101e35780636352211e146101ff57806370a082311461022f5761011f565b806301ffc9a71461012357806306fdde0314610153578063081812fc14610171578063095ea7b3146101a1575b5f80fd5b61013d60048036038101906101389190611982565b610395565b60405161014a91906119c7565b60405180910390f35b61015b610476565b6040516101689190611a6a565b60405180910390f35b61018b60048036038101906101869190611abd565b610505565b6040516101989190611b27565b60405180910390f35b6101bb60048036038101906101b69190611b6a565b610520565b005b6101c5610536565b005b6101e160048036038101906101dc9190611ba8565b610563565b005b6101fd60048036038101906101f89190611ba8565b610662565b005b61021960048036038101906102149190611abd565b610681565b6040516102269190611b27565b60405180910390f35b61024960048036038101906102449190611bf8565b610692565b6040516102569190611c32565b60405180910390f35b610267610748565b005b61027161075b565b60405161027e9190611c32565b60405180910390f35b61028f610761565b60405161029c9190611b27565b60405180910390f35b6102ad610789565b6040516102ba9190611a6a565b60405180910390f35b6102dd60048036038101906102d89190611c75565b610819565b005b6102f960048036038101906102f49190611ddf565b61082f565b005b61031560048036038101906103109190611abd565b610854565b6040516103229190611a6a565b60405180910390f35b6103336108ba565b6040516103409190611a6a565b60405180910390f35b610363600480360381019061035e9190611e5f565b610946565b60405161037091906119c7565b60405180910390f35b610393600480360381019061038e9190611bf8565b6109d4565b005b5f7f80ac58cd000000000000000000000000000000000000000000000000000000007bffffffffffffffffffffffffffffffffffffffffffffffffffffffff1916827bffffffffffffffffffffffffffffffffffffffffffffffffffffffff1916148061045f57507f5b5e139f000000000000000000000000000000000000000000000000000000007bffffffffffffffffffffffffffffffffffffffffffffffffffffffff1916827bffffffffffffffffffffffffffffffffffffffffffffffffffffffff1916145b8061046f575061046e82610a58565b5b9050919050565b60605f805461048490611eca565b80601f01602080910402602001604051908101604052809291908181526020018280546104b090611eca565b80156104fb5780601f106104d2576101008083540402835291602001916104fb565b820191905f5260205f20905b8154815290600101906020018083116104de57829003601f168201915b5050505050905090565b5f61050f82610ac1565b5061051982610b47565b9050919050565b610532828261052d610b80565b610b87565b5050565b61053e610b99565b61054a33600754610c20565b60075f81548092919061055c90611f27565b9190505550565b5f73ffffffffffffffffffffffffffffffffffffffff168273ffffffffffffffffffffffffffffffffffffffff16036105d3575f6040517f64a0ae920000000000000000000000000000000000000000000000000000000081526004016105ca9190611b27565b60405180910390fd5b5f6105e683836105e1610b80565b610d13565b90508373ffffffffffffffffffffffffffffffffffffffff168173ffffffffffffffffffffffffffffffffffffffff161461065c578382826040517f64283d7b00000000000000000000000000000000000000000000000000000000815260040161065393929190611f6e565b60405180910390fd5b50505050565b61067c83838360405180602001604052805f81525061082f565b505050565b5f61068b82610ac1565b9050919050565b5f8073ffffffffffffffffffffffffffffffffffffffff168273ffffffffffffffffffffffffffffffffffffffff1603610703575f6040517f89c62b640000000000000000000000000000000000000000000000000000000081526004016106fa9190611b27565b60405180910390fd5b60035f8373ffffffffffffffffffffffffffffffffffffffff1673ffffffffffffffffffffffffffffffffffffffff1681526020019081526020015f20549050919050565b610750610b99565b6107595f610f1e565b565b60075481565b5f60065f9054906101000a900473ffffffffffffffffffffffffffffffffffffffff16905090565b60606001805461079890611eca565b80601f01602080910402602001604051908101604052809291908181526020018280546107c490611eca565b801561080f5780601f106107e65761010080835404028352916020019161080f565b820191905f5260205f20905b8154815290600101906020018083116107f257829003601f168201915b5050505050905090565b61082b610824610b80565b8383610fe1565b5050565b61083a848484610563565b61084e610845610b80565b8585858561114a565b50505050565b606061085f82610ac1565b505f6108696112f6565b90505f8151116108875760405180602001604052805f8152506108b2565b8061089184611386565b6040516020016108a2929190611fdd565b6040516020818303038152906040525b915050919050565b600880546108c790611eca565b80601f01602080910402602001604051908101604052809291908181526020018280546108f390611eca565b801561093e5780601f106109155761010080835404028352916020019161093e565b820191905f5260205f20905b81548152906001019060200180831161092157829003601f168201915b505050505081565b5f60055f8473ffffffffffffffffffffffffffffffffffffffff1673ffffffffffffffffffffffffffffffffffffffff1681526020019081526020015f205f8373ffffffffffffffffffffffffffffffffffffffff1673ffffffffffffffffffffffffffffffffffffffff1681526020019081526020015f205f9054906101000a900460ff16905092915050565b6109dc610b99565b5f73ffffffffffffffffffffffffffffffffffffffff168173ffffffffffffffffffffffffffffffffffffffff1603610a4c575f6040517f1e4fbdf7000000000000000000000000000000000000000000000000000000008152600401610a439190611b27565b60405180910390fd5b610a5581610f1e565b50565b5f7f01ffc9a7000000000000000000000000000000000000000000000000000000007bffffffffffffffffffffffffffffffffffffffffffffffffffffffff1916827bffffffffffffffffffffffffffffffffffffffffffffffffffffffff1916149050919050565b5f80610acc83611450565b90505f73ffffffffffffffffffffffffffffffffffffffff168173ffffffffffffffffffffffffffffffffffffffff1603610b3e57826040517f7e273289000000000000000000000000000000000000000000000000000000008152600401610b359190611c32565b60405180910390fd5b80915050919050565b5f60045f8381526020019081526020015f205f9054906101000a900473ffffffffffffffffffffffffffffffffffffffff169050919050565b5f33905090565b610b948383836001611489565b505050565b610ba1610b80565b73ffffffffffffffffffffffffffffffffffffffff16610bbf610761565b73ffffffffffffffffffffffffffffffffffffffff1614610c1e57610be2610b80565b6040517f118cdaa7000000000000000000000000000000000000000000000000000000008152600401610c159190611b27565b60405180910390fd5b565b5f73ffffffffffffffffffffffffffffffffffffffff168273ffffffffffffffffffffffffffffffffffffffff1603610c90575f6040517f64a0ae92000000000000000000000000000000000000000000000000000000008152600401610c879190611b27565b60405180910390fd5b5f610c9c83835f610d13565b90505f73ffffffffffffffffffffffffffffffffffffffff168173ffffffffffffffffffffffffffffffffffffffff1614610d0e575f6040517f73c6ac6e000000000000000000000000000000000000000000000000000000008152600401610d059190611b27565b60405180910390fd5b505050565b5f80610d1e84611450565b90505f73ffffffffffffffffffffffffffffffffffffffff168373ffffffffffffffffffffffffffffffffffffffff1614610d5f57610d5e818486611648565b5b5f73ffffffffffffffffffffffffffffffffffffffff168173ffffffffffffffffffffffffffffffffffffffff1614610dea57610d9e5f855f80611489565b600160035f8373ffffffffffffffffffffffffffffffffffffffff1673ffffffffffffffffffffffffffffffffffffffff1681526020019081526020015f205f82825403925050819055505b5f73ffffffffffffffffffffffffffffffffffffffff168573ffffffffffffffffffffffffffffffffffffffff1614610e6957600160035f8773ffffffffffffffffffffffffffffffffffffffff1673ffffffffffffffffffffffffffffffffffffffff1681526020019081526020015f205f82825401925050819055505b8460025f8681526020019081526020015f205f6101000a81548173ffffffffffffffffffffffffffffffffffffffff021916908373ffffffffffffffffffffffffffffffffffffffff160217905550838573ffffffffffffffffffffffffffffffffffffffff168273ffffffffffffffffffffffffffffffffffffffff167fddf252ad1be2c89b69c2b068fc378daa952ba7f163c4a11628f55a4df523b3ef60405160405180910390a4809150509392505050565b5f60065f9054906101000a900473ffffffffffffffffffffffffffffffffffffffff1690508160065f6101000a81548173ffffffffffffffffffffffffffffffffffffffff021916908373ffffffffffffffffffffffffffffffffffffffff1602179055508173ffffffffffffffffffffffffffffffffffffffff168173ffffffffffffffffffffffffffffffffffffffff167f8be0079c531659141344cd1fd0a4f28419497f9722a3daafe3b4186f6b6457e060405160405180910390a35050565b5f73ffffffffffffffffffffffffffffffffffffffff168273ffffffffffffffffffffffffffffffffffffffff160361105157816040517f5b08ba180000000000000000000000000000000000000000000000000000000081526004016110489190611b27565b60405180910390fd5b8060055f8573ffffffffffffffffffffffffffffffffffffffff1673ffffffffffffffffffffffffffffffffffffffff1681526020019081526020015f205f8473ffffffffffffffffffffffffffffffffffffffff1673ffffffffffffffffffffffffffffffffffffffff1681526020019081526020015f205f6101000a81548160ff0219169083151502179055508173ffffffffffffffffffffffffffffffffffffffff168373ffffffffffffffffffffffffffffffffffffffff167f17307eab39ab6107e8899845ad3d59bd9653f200f220920489ca2b5937696c318360405161113d91906119c7565b60405180910390a3505050565b5f8373ffffffffffffffffffffffffffffffffffffffff163b11156112ef578273ffffffffffffffffffffffffffffffffffffffff1663150b7a02868685856040518563ffffffff1660e01b81526004016111a89493929190612052565b6020604051808303815f875af19250505080156111e357506040513d601f19601f820116820180604052508101906111e091906120b0565b60015b611264573d805f8114611211576040519150601f19603f3d011682016040523d82523d5f602084013e611216565b606091505b505f81510361125c57836040517f64a0ae920000000000000000000000000000000000000000000000000000000081526004016112539190611b27565b60405180910390fd5b805181602001fd5b63150b7a0260e01b7bffffffffffffffffffffffffffffffffffffffffffffffffffffffff1916817bffffffffffffffffffffffffffffffffffffffffffffffffffffffff1916146112ed57836040517f64a0ae920000000000000000000000000000000000000000000000000000000081526004016112e49190611b27565b60405180910390fd5b505b5050505050565b60606008805461130590611eca565b80601f016020809104026020016040519081016040528092919081815260200182805461133190611eca565b801561137c5780601f106113535761010080835404028352916020019161137c565b820191905f5260205f20905b81548152906001019060200180831161135f57829003601f168201915b5050505050905090565b60605f60016113948461170b565b0190505f8167ffffffffffffffff8111156113b2576113b1611cbb565b5b6040519080825280601f01601f1916602001820160405280156113e45781602001600182028036833780820191505090505b5090505f82602001820190505b600115611445578080600190039150507f3031323334353637383961626364656600000000000000000000000000000000600a86061a8153600a858161143a576114396120db565b5b0494505f85036113f1575b819350505050919050565b5f60025f8381526020019081526020015f205f9054906101000a900473ffffffffffffffffffffffffffffffffffffffff169050919050565b80806114c157505f73ffffffffffffffffffffffffffffffffffffffff168273ffffffffffffffffffffffffffffffffffffffff1614155b156115f3575f6114d084610ac1565b90505f73ffffffffffffffffffffffffffffffffffffffff168373ffffffffffffffffffffffffffffffffffffffff161415801561153a57508273ffffffffffffffffffffffffffffffffffffffff168173ffffffffffffffffffffffffffffffffffffffff1614155b801561154d575061154b8184610946565b155b1561158f57826040517fa9fbf51f0000000000000000000000000000000000000000000000000000000081526004016115869190611b27565b60405180910390fd5b81156115f157838573ffffffffffffffffffffffffffffffffffffffff168273ffffffffffffffffffffffffffffffffffffffff167f8c5be1e5ebec7d5bd14f71427d1e84f3dd0314c0f7b2291e5b200ac8c7c3b92560405160405180910390a45b505b8360045f8581526020019081526020015f205f6101000a81548173ffffffffffffffffffffffffffffffffffffffff021916908373ffffffffffffffffffffffffffffffffffffffff16021790555050505050565b61165383838361185c565b611706575f73ffffffffffffffffffffffffffffffffffffffff168373ffffffffffffffffffffffffffffffffffffffff16036116c757806040517f7e2732890000000000000000000000000000000000000000000000000000000081526004016116be9190611c32565b60405180910390fd5b81816040517f177e802f0000000000000000000000000000000000000000000000000000000081526004016116fd929190612108565b60405180910390fd5b505050565b5f805f90507a184f03e93ff9f4daa797ed6e38ed64bf6a1f0100000000000000008310611767577a184f03e93ff9f4daa797ed6e38ed64bf6a1f010000000000000000838161175d5761175c6120db565b5b0492506040810190505b6d04ee2d6d415b85acef810000000083106117a4576d04ee2d6d415b85acef8100000000838161179a576117996120db565b5b0492506020810190505b662386f26fc1000083106117d357662386f26fc1000083816117c9576117c86120db565b5b0492506010810190505b6305f5e10083106117fc576305f5e10083816117f2576117f16120db565b5b0492506008810190505b6127108310611821576127108381611817576118166120db565b5b0492506004810190505b60648310611844576064838161183a576118396120db565b5b0492506002810190505b600a8310611853576001810190505b80915050919050565b5f8073ffffffffffffffffffffffffffffffffffffffff168373ffffffffffffffffffffffffffffffffffffffff161415801561191357508273ffffffffffffffffffffffffffffffffffffffff168473ffffffffffffffffffffffffffffffffffffffff1614806118d457506118d38484610946565b5b8061191257508273ffffffffffffffffffffffffffffffffffffffff166118fa83610b47565b73ffffffffffffffffffffffffffffffffffffffff16145b5b90509392505050565b5f604051905090565b5f80fd5b5f80fd5b5f7fffffffff0000000000000000000000000000000000000000000000000000000082169050919050565b6119618161192d565b811461196b575f80fd5b50565b5f8135905061197c81611958565b92915050565b5f6020828403121561199757611996611925565b5b5f6119a48482850161196e565b91505092915050565b5f8115159050919050565b6119c1816119ad565b82525050565b5f6020820190506119da5f8301846119b8565b92915050565b5f81519050919050565b5f82825260208201905092915050565b5f5b83811015611a175780820151818401526020810190506119fc565b5f8484015250505050565b5f601f19601f8301169050919050565b5f611a3c826119e0565b611a4681856119ea565b9350611a568185602086016119fa565b611a5f81611a22565b840191505092915050565b5f6020820190508181035f830152611a828184611a32565b905092915050565b5f819050919050565b611a9c81611a8a565b8114611aa6575f80fd5b50565b5f81359050611ab781611a93565b92915050565b5f60208284031215611ad257611ad1611925565b5b5f611adf84828501611aa9565b91505092915050565b5f73ffffffffffffffffffffffffffffffffffffffff82169050919050565b5f611b1182611ae8565b9050919050565b611b2181611b07565b82525050565b5f602082019050611b3a5f830184611b18565b92915050565b611b4981611b07565b8114611b53575f80fd5b50565b5f81359050611b6481611b40565b92915050565b5f8060408385031215611b8057611b7f611925565b5b5f611b8d85828601611b56565b9250506020611b9e85828601611aa9565b9150509250929050565b5f805f60608486031215611bbf57611bbe611925565b5b5f611bcc86828701611b56565b9350506020611bdd86828701611b56565b9250506040611bee86828701611aa9565b9150509250925092565b5f60208284031215611c0d57611c0c611925565b5b5f611c1a84828501611b56565b91505092915050565b611c2c81611a8a565b82525050565b5f602082019050611c455f830184611c23565b92915050565b611c54816119ad565b8114611c5e575f80fd5b50565b5f81359050611c6f81611c4b565b92915050565b5f8060408385031215611c8b57611c8a611925565b5b5f611c9885828601611b56565b9250506020611ca985828601611c61565b9150509250929050565b5f80fd5b5f80fd5b7f4e487b71000000000000000000000000000000000000000000000000000000005f52604160045260245ffd5b611cf182611a22565b810181811067ffffffffffffffff82111715611d1057611d0f611cbb565b5b80604052505050565b5f611d2261191c565b9050611d2e8282611ce8565b919050565b5f67ffffffffffffffff821115611d4d57611d4c611cbb565b5b611d5682611a22565b9050602081019050919050565b828183375f83830152505050565b5f611d83611d7e84611d33565b611d19565b905082815260208101848484011115611d9f57611d9e611cb7565b5b611daa848285611d63565b509392505050565b5f82601f830112611dc657611dc5611cb3565b5b8135611dd6848260208601611d71565b91505092915050565b5f805f8060808587031215611df757611df6611925565b5b5f611e0487828801611b56565b9450506020611e1587828801611b56565b9350506040611e2687828801611aa9565b925050606085013567ffffffffffffffff811115611e4757611e46611929565b5b611e5387828801611db2565b91505092959194509250565b5f8060408385031215611e7557611e74611925565b5b5f611e8285828601611b56565b9250506020611e9385828601611b56565b9150509250929050565b7f4e487b71000000000000000000000000000000000000000000000000000000005f52602260045260245ffd5b5f6002820490506001821680611ee157607f821691505b602082108103611ef457611ef3611e9d565b5b50919050565b7f4e487b71000000000000000000000000000000000000000000000000000000005f52601160045260245ffd5b5f611f3182611a8a565b91507fffffffffffffffffffffffffffffffffffffffffffffffffffffffffffffffff8203611f6357611f62611efa565b5b600182019050919050565b5f606082019050611f815f830186611b18565b611f8e6020830185611c23565b611f9b6040830184611b18565b949350505050565b5f81905092915050565b5f611fb7826119e0565b611fc18185611fa3565b9350611fd18185602086016119fa565b80840191505092915050565b5f611fe88285611fad565b9150611ff48284611fad565b91508190509392505050565b5f81519050919050565b5f82825260208201905092915050565b5f61202482612000565b61202e818561200a565b935061203e8185602086016119fa565b61204781611a22565b840191505092915050565b5f6080820190506120655f830187611b18565b6120726020830186611b18565b61207f6040830185611c23565b8181036060830152612091818461201a565b905095945050505050565b5f815190506120aa81611958565b92915050565b5f602082840312156120c5576120c4611925565b5b5f6120d28482850161209c565b91505092915050565b7f4e487b71000000000000000000000000000000000000000000000000000000005f52601260045260245ffd5b5f60408201905061211b5f830185611b18565b6121286020830184611c23565b939250505056fea26469706673582212200fc4ac4948dae7c55d24b1932a7049525d57cefdd2780710096edc773be49c7264736f6c63430008140033",
  "immutableReferences": {},
  "source": "// SPDX-License-Identifier: MIT\r\npragma solidity ^0.8.20;\r\n\r\nimport \"@openzeppelin/contracts/token/ERC721/ERC721.sol\";\r\nimport \"@openzeppelin/contracts/access/Ownable.sol\";\r\n\r\ncontract MyNFT is ERC721, Ownable {\r\n    uint256 public nextTokenId;\r\n    string public baseTokenURI;\r\n\r\n    constructor(string memory _baseTokenURI) ERC721(\"MyNFT\", \"NFT\") Ownable(msg.sender) {\r\n        baseTokenURI = _baseTokenURI;\r\n    }\r\n\r\n    function _baseURI() internal view override returns (string memory) {\r\n        return baseTokenURI;\r\n    }\r\n\r\n    function mint() external onlyOwner {\r\n        _mint(msg.sender, nextTokenId);\r\n        nextTokenId++;\r\n    }\r\n}\r\n",
  "sourcePath": "D:\\S2-group12\\Group12-COS300049\\backend\\contracts\\MyNFT.sol",
  "compiler": {
    "name": "solc",
    "version": "0.8.20+commit.a1b79de6.Emscripten.clang"
  },
  "schemaVersion": "3.4.16",
  "updatedAt": "2025-03-07T02:28:29.162Z",
  "devdoc": {
    "errors": {
      "ERC721IncorrectOwner(address,uint256,address)": [
        {
          "details": "Indicates an error related to the ownership over a particular token. Used in transfers.",
          "params": {
            "owner": "Address of the current owner of a token.",
            "sender": "Address whose tokens are being transferred.",
            "tokenId": "Identifier number of a token."
          }
        }
      ],
      "ERC721InsufficientApproval(address,uint256)": [
        {
          "details": "Indicates a failure with the `operator`s approval. Used in transfers.",
          "params": {
            "operator": "Address that may be allowed to operate on tokens without being their owner.",
            "tokenId": "Identifier number of a token."
          }
        }
      ],
      "ERC721InvalidApprover(address)": [
        {
          "details": "Indicates a failure with the `approver` of a token to be approved. Used in approvals.",
          "params": {
            "approver": "Address initiating an approval operation."
          }
        }
      ],
      "ERC721InvalidOperator(address)": [
        {
          "details": "Indicates a failure with the `operator` to be approved. Used in approvals.",
          "params": {
            "operator": "Address that may be allowed to operate on tokens without being their owner."
          }
        }
      ],
      "ERC721InvalidOwner(address)": [
        {
          "details": "Indicates that an address can't be an owner. For example, `address(0)` is a forbidden owner in ERC-20. Used in balance queries.",
          "params": {
            "owner": "Address of the current owner of a token."
          }
        }
      ],
      "ERC721InvalidReceiver(address)": [
        {
          "details": "Indicates a failure with the token `receiver`. Used in transfers.",
          "params": {
            "receiver": "Address to which tokens are being transferred."
          }
        }
      ],
      "ERC721InvalidSender(address)": [
        {
          "details": "Indicates a failure with the token `sender`. Used in transfers.",
          "params": {
            "sender": "Address whose tokens are being transferred."
          }
        }
      ],
      "ERC721NonexistentToken(uint256)": [
        {
          "details": "Indicates a `tokenId` whose `owner` is the zero address.",
          "params": {
            "tokenId": "Identifier number of a token."
          }
        }
      ],
      "OwnableInvalidOwner(address)": [
        {
          "details": "The owner is not a valid owner account. (eg. `address(0)`)"
        }
      ],
      "OwnableUnauthorizedAccount(address)": [
        {
          "details": "The caller account is not authorized to perform an operation."
        }
      ]
    },
    "events": {
      "Approval(address,address,uint256)": {
        "details": "Emitted when `owner` enables `approved` to manage the `tokenId` token."
      },
      "ApprovalForAll(address,address,bool)": {
        "details": "Emitted when `owner` enables or disables (`approved`) `operator` to manage all of its assets."
      },
      "Transfer(address,address,uint256)": {
        "details": "Emitted when `tokenId` token is transferred from `from` to `to`."
      }
    },
    "kind": "dev",
    "methods": {
      "approve(address,uint256)": {
        "details": "See {IERC721-approve}."
      },
      "balanceOf(address)": {
        "details": "See {IERC721-balanceOf}."
      },
      "getApproved(uint256)": {
        "details": "See {IERC721-getApproved}."
      },
      "isApprovedForAll(address,address)": {
        "details": "See {IERC721-isApprovedForAll}."
      },
      "name()": {
        "details": "See {IERC721Metadata-name}."
      },
      "owner()": {
        "details": "Returns the address of the current owner."
      },
      "ownerOf(uint256)": {
        "details": "See {IERC721-ownerOf}."
      },
      "renounceOwnership()": {
        "details": "Leaves the contract without owner. It will not be possible to call `onlyOwner` functions. Can only be called by the current owner. NOTE: Renouncing ownership will leave the contract without an owner, thereby disabling any functionality that is only available to the owner."
      },
      "safeTransferFrom(address,address,uint256)": {
        "details": "See {IERC721-safeTransferFrom}."
      },
      "safeTransferFrom(address,address,uint256,bytes)": {
        "details": "See {IERC721-safeTransferFrom}."
      },
      "setApprovalForAll(address,bool)": {
        "details": "See {IERC721-setApprovalForAll}."
      },
      "supportsInterface(bytes4)": {
        "details": "See {IERC165-supportsInterface}."
      },
      "symbol()": {
        "details": "See {IERC721Metadata-symbol}."
      },
      "tokenURI(uint256)": {
        "details": "See {IERC721Metadata-tokenURI}."
      },
      "transferFrom(address,address,uint256)": {
        "details": "See {IERC721-transferFrom}."
      },
      "transferOwnership(address)": {
        "details": "Transfers ownership of the contract to a new account (`newOwner`). Can only be called by the current owner."
      }
    },
    "version": 1
  },
  "userdoc": {
    "kind": "user",
    "methods": {},
    "version": 1
  }
}