{
  "contractName": "MyNFT",
  "abi": [
    {
      "inputs": [
        {
          "internalType": "address",
          "name": "initialOwner",
          "type": "address"
        }
      ],
      "stateMutability": "nonpayable",
      "type": "constructor"
    },
    {
      "inputs": [
        {
          "internalType": "address",
          "name": "sender",
          "type": "address"
        },
        {
          "internalType": "uint256",
          "name": "tokenId",
          "type": "uint256"
        },
        {
          "internalType": "address",
          "name": "owner",
          "type": "address"
        }
      ],
      "name": "ERC721IncorrectOwner",
      "type": "error"
    },
    {
      "inputs": [
        {
          "internalType": "address",
          "name": "operator",
          "type": "address"
        },
        {
          "internalType": "uint256",
          "name": "tokenId",
          "type": "uint256"
        }
      ],
      "name": "ERC721InsufficientApproval",
      "type": "error"
    },
    {
      "inputs": [
        {
          "internalType": "address",
          "name": "approver",
          "type": "address"
        }
      ],
      "name": "ERC721InvalidApprover",
      "type": "error"
    },
    {
      "inputs": [
        {
          "internalType": "address",
          "name": "operator",
          "type": "address"
        }
      ],
      "name": "ERC721InvalidOperator",
      "type": "error"
    },
    {
      "inputs": [
        {
          "internalType": "address",
          "name": "owner",
          "type": "address"
        }
      ],
      "name": "ERC721InvalidOwner",
      "type": "error"
    },
    {
      "inputs": [
        {
          "internalType": "address",
          "name": "receiver",
          "type": "address"
        }
      ],
      "name": "ERC721InvalidReceiver",
      "type": "error"
    },
    {
      "inputs": [
        {
          "internalType": "address",
          "name": "sender",
          "type": "address"
        }
      ],
      "name": "ERC721InvalidSender",
      "type": "error"
    },
    {
      "inputs": [
        {
          "internalType": "uint256",
          "name": "tokenId",
          "type": "uint256"
        }
      ],
      "name": "ERC721NonexistentToken",
      "type": "error"
    },
    {
      "inputs": [
        {
          "internalType": "address",
          "name": "owner",
          "type": "address"
        }
      ],
      "name": "OwnableInvalidOwner",
      "type": "error"
    },
    {
      "inputs": [
        {
          "internalType": "address",
          "name": "account",
          "type": "address"
        }
      ],
      "name": "OwnableUnauthorizedAccount",
      "type": "error"
    },
    {
      "anonymous": false,
      "inputs": [
        {
          "indexed": true,
          "internalType": "address",
          "name": "owner",
          "type": "address"
        },
        {
          "indexed": true,
          "internalType": "address",
          "name": "approved",
          "type": "address"
        },
        {
          "indexed": true,
          "internalType": "uint256",
          "name": "tokenId",
          "type": "uint256"
        }
      ],
      "name": "Approval",
      "type": "event"
    },
    {
      "anonymous": false,
      "inputs": [
        {
          "indexed": true,
          "internalType": "address",
          "name": "owner",
          "type": "address"
        },
        {
          "indexed": true,
          "internalType": "address",
          "name": "operator",
          "type": "address"
        },
        {
          "indexed": false,
          "internalType": "bool",
          "name": "approved",
          "type": "bool"
        }
      ],
      "name": "ApprovalForAll",
      "type": "event"
    },
    {
      "anonymous": false,
      "inputs": [
        {
          "indexed": false,
          "internalType": "uint256",
          "name": "_fromTokenId",
          "type": "uint256"
        },
        {
          "indexed": false,
          "internalType": "uint256",
          "name": "_toTokenId",
          "type": "uint256"
        }
      ],
      "name": "BatchMetadataUpdate",
      "type": "event"
    },
    {
      "anonymous": false,
      "inputs": [
        {
          "indexed": false,
          "internalType": "uint256",
          "name": "_tokenId",
          "type": "uint256"
        }
      ],
      "name": "MetadataUpdate",
      "type": "event"
    },
    {
      "anonymous": false,
      "inputs": [
        {
          "indexed": true,
          "internalType": "address",
          "name": "previousOwner",
          "type": "address"
        },
        {
          "indexed": true,
          "internalType": "address",
          "name": "newOwner",
          "type": "address"
        }
      ],
      "name": "OwnershipTransferred",
      "type": "event"
    },
    {
      "anonymous": false,
      "inputs": [
        {
          "indexed": true,
          "internalType": "address",
          "name": "from",
          "type": "address"
        },
        {
          "indexed": true,
          "internalType": "address",
          "name": "to",
          "type": "address"
        },
        {
          "indexed": true,
          "internalType": "uint256",
          "name": "tokenId",
          "type": "uint256"
        }
      ],
      "name": "Transfer",
      "type": "event"
    },
    {
      "inputs": [],
      "name": "_nextTokenId",
      "outputs": [
        {
          "internalType": "uint256",
          "name": "",
          "type": "uint256"
        }
      ],
      "stateMutability": "view",
      "type": "function",
      "constant": true
    },
    {
      "inputs": [
        {
          "internalType": "address",
          "name": "to",
          "type": "address"
        },
        {
          "internalType": "uint256",
          "name": "tokenId",
          "type": "uint256"
        }
      ],
      "name": "approve",
      "outputs": [],
      "stateMutability": "nonpayable",
      "type": "function"
    },
    {
      "inputs": [
        {
          "internalType": "address",
          "name": "owner",
          "type": "address"
        }
      ],
      "name": "balanceOf",
      "outputs": [
        {
          "internalType": "uint256",
          "name": "",
          "type": "uint256"
        }
      ],
      "stateMutability": "view",
      "type": "function",
      "constant": true
    },
    {
      "inputs": [
        {
          "internalType": "uint256",
          "name": "tokenId",
          "type": "uint256"
        }
      ],
      "name": "getApproved",
      "outputs": [
        {
          "internalType": "address",
          "name": "",
          "type": "address"
        }
      ],
      "stateMutability": "view",
      "type": "function",
      "constant": true
    },
    {
      "inputs": [
        {
          "internalType": "address",
          "name": "owner",
          "type": "address"
        },
        {
          "internalType": "address",
          "name": "operator",
          "type": "address"
        }
      ],
      "name": "isApprovedForAll",
      "outputs": [
        {
          "internalType": "bool",
          "name": "",
          "type": "bool"
        }
      ],
      "stateMutability": "view",
      "type": "function",
      "constant": true
    },
    {
      "inputs": [],
      "name": "name",
      "outputs": [
        {
          "internalType": "string",
          "name": "",
          "type": "string"
        }
      ],
      "stateMutability": "view",
      "type": "function",
      "constant": true
    },
    {
      "inputs": [],
      "name": "owner",
      "outputs": [
        {
          "internalType": "address",
          "name": "",
          "type": "address"
        }
      ],
      "stateMutability": "view",
      "type": "function",
      "constant": true
    },
    {
      "inputs": [
        {
          "internalType": "uint256",
          "name": "tokenId",
          "type": "uint256"
        }
      ],
      "name": "ownerOf",
      "outputs": [
        {
          "internalType": "address",
          "name": "",
          "type": "address"
        }
      ],
      "stateMutability": "view",
      "type": "function",
      "constant": true
    },
    {
      "inputs": [],
      "name": "renounceOwnership",
      "outputs": [],
      "stateMutability": "nonpayable",
      "type": "function"
    },
    {
      "inputs": [
        {
          "internalType": "address",
          "name": "from",
          "type": "address"
        },
        {
          "internalType": "address",
          "name": "to",
          "type": "address"
        },
        {
          "internalType": "uint256",
          "name": "tokenId",
          "type": "uint256"
        }
      ],
      "name": "safeTransferFrom",
      "outputs": [],
      "stateMutability": "nonpayable",
      "type": "function"
    },
    {
      "inputs": [
        {
          "internalType": "address",
          "name": "from",
          "type": "address"
        },
        {
          "internalType": "address",
          "name": "to",
          "type": "address"
        },
        {
          "internalType": "uint256",
          "name": "tokenId",
          "type": "uint256"
        },
        {
          "internalType": "bytes",
          "name": "data",
          "type": "bytes"
        }
      ],
      "name": "safeTransferFrom",
      "outputs": [],
      "stateMutability": "nonpayable",
      "type": "function"
    },
    {
      "inputs": [
        {
          "internalType": "address",
          "name": "operator",
          "type": "address"
        },
        {
          "internalType": "bool",
          "name": "approved",
          "type": "bool"
        }
      ],
      "name": "setApprovalForAll",
      "outputs": [],
      "stateMutability": "nonpayable",
      "type": "function"
    },
    {
      "inputs": [],
      "name": "symbol",
      "outputs": [
        {
          "internalType": "string",
          "name": "",
          "type": "string"
        }
      ],
      "stateMutability": "view",
      "type": "function",
      "constant": true
    },
    {
      "inputs": [
        {
          "internalType": "address",
          "name": "from",
          "type": "address"
        },
        {
          "internalType": "address",
          "name": "to",
          "type": "address"
        },
        {
          "internalType": "uint256",
          "name": "tokenId",
          "type": "uint256"
        }
      ],
      "name": "transferFrom",
      "outputs": [],
      "stateMutability": "nonpayable",
      "type": "function"
    },
    {
      "inputs": [
        {
          "internalType": "address",
          "name": "newOwner",
          "type": "address"
        }
      ],
      "name": "transferOwnership",
      "outputs": [],
      "stateMutability": "nonpayable",
      "type": "function"
    },
    {
      "inputs": [
        {
          "internalType": "address",
          "name": "to",
          "type": "address"
        },
        {
          "internalType": "string",
          "name": "uri",
          "type": "string"
        }
      ],
      "name": "safeMint",
      "outputs": [
        {
          "internalType": "uint256",
          "name": "",
          "type": "uint256"
        }
      ],
      "stateMutability": "nonpayable",
      "type": "function"
    },
    {
      "inputs": [
        {
          "internalType": "address",
          "name": "recipient",
          "type": "address"
        },
        {
          "internalType": "string",
          "name": "metadataURI",
          "type": "string"
        },
        {
          "internalType": "uint256",
          "name": "tokenId",
          "type": "uint256"
        }
      ],
      "name": "payToMint",
      "outputs": [
        {
          "internalType": "uint256",
          "name": "",
          "type": "uint256"
        }
      ],
      "stateMutability": "payable",
      "type": "function",
      "payable": true
    },
    {
      "inputs": [
        {
          "internalType": "uint256",
          "name": "tokenId",
          "type": "uint256"
        }
      ],
      "name": "isMinted",
      "outputs": [
        {
          "internalType": "bool",
          "name": "",
          "type": "bool"
        }
      ],
      "stateMutability": "view",
      "type": "function",
      "constant": true
    },
    {
      "inputs": [
        {
          "internalType": "string",
          "name": "uri",
          "type": "string"
        }
      ],
      "name": "isContentOwned",
      "outputs": [
        {
          "internalType": "bool",
          "name": "",
          "type": "bool"
        }
      ],
      "stateMutability": "view",
      "type": "function",
      "constant": true
    },
    {
      "inputs": [],
      "name": "getTotalSupply",
      "outputs": [
        {
          "internalType": "uint256",
          "name": "",
          "type": "uint256"
        }
      ],
      "stateMutability": "view",
      "type": "function",
      "constant": true
    },
    {
      "inputs": [],
      "name": "withdraw",
      "outputs": [],
      "stateMutability": "nonpayable",
      "type": "function"
    },
    {
      "inputs": [
        {
          "internalType": "uint256",
          "name": "tokenId",
          "type": "uint256"
        }
      ],
      "name": "tokenURI",
      "outputs": [
        {
          "internalType": "string",
          "name": "",
          "type": "string"
        }
      ],
      "stateMutability": "view",
      "type": "function",
      "constant": true
    },
    {
      "inputs": [
        {
          "internalType": "bytes4",
          "name": "interfaceId",
          "type": "bytes4"
        }
      ],
      "name": "supportsInterface",
      "outputs": [
        {
          "internalType": "bool",
          "name": "",
          "type": "bool"
        }
      ],
      "stateMutability": "view",
      "type": "function",
      "constant": true
    }
  ],
  "bytecode": "0x608060405234801562000010575f80fd5b50604051620033ef380380620033ef83398181016040528101906200003691906200027c565b806040518060400160405280600581526020017f4d794e46540000000000000000000000000000000000000000000000000000008152506040518060400160405280600381526020017f4554480000000000000000000000000000000000000000000000000000000000815250815f9081620000b3919062000510565b508060019081620000c5919062000510565b5050505f73ffffffffffffffffffffffffffffffffffffffff168173ffffffffffffffffffffffffffffffffffffffff16036200013b575f6040517f1e4fbdf700000000000000000000000000000000000000000000000000000000815260040162000132919062000605565b60405180910390fd5b6200014c816200015460201b60201c565b505062000620565b5f60075f9054906101000a900473ffffffffffffffffffffffffffffffffffffffff1690508160075f6101000a81548173ffffffffffffffffffffffffffffffffffffffff021916908373ffffffffffffffffffffffffffffffffffffffff1602179055508173ffffffffffffffffffffffffffffffffffffffff168173ffffffffffffffffffffffffffffffffffffffff167f8be0079c531659141344cd1fd0a4f28419497f9722a3daafe3b4186f6b6457e060405160405180910390a35050565b5f80fd5b5f73ffffffffffffffffffffffffffffffffffffffff82169050919050565b5f62000246826200021b565b9050919050565b62000258816200023a565b811462000263575f80fd5b50565b5f8151905062000276816200024d565b92915050565b5f6020828403121562000294576200029362000217565b5b5f620002a38482850162000266565b91505092915050565b5f81519050919050565b7f4e487b71000000000000000000000000000000000000000000000000000000005f52604160045260245ffd5b7f4e487b71000000000000000000000000000000000000000000000000000000005f52602260045260245ffd5b5f60028204905060018216806200032857607f821691505b6020821081036200033e576200033d620002e3565b5b50919050565b5f819050815f5260205f209050919050565b5f6020601f8301049050919050565b5f82821b905092915050565b5f60088302620003a27fffffffffffffffffffffffffffffffffffffffffffffffffffffffffffffffff8262000365565b620003ae868362000365565b95508019841693508086168417925050509392505050565b5f819050919050565b5f819050919050565b5f620003f8620003f2620003ec84620003c6565b620003cf565b620003c6565b9050919050565b5f819050919050565b6200041383620003d8565b6200042b6200042282620003ff565b84845462000371565b825550505050565b5f90565b6200044162000433565b6200044e81848462000408565b505050565b5b818110156200047557620004695f8262000437565b60018101905062000454565b5050565b601f821115620004c4576200048e8162000344565b620004998462000356565b81016020851015620004a9578190505b620004c1620004b88562000356565b83018262000453565b50505b505050565b5f82821c905092915050565b5f620004e65f1984600802620004c9565b1980831691505092915050565b5f620005008383620004d5565b9150826002028217905092915050565b6200051b82620002ac565b67ffffffffffffffff811115620005375762000536620002b6565b5b62000543825462000310565b6200055082828562000479565b5f60209050601f83116001811462000586575f841562000571578287015190505b6200057d8582620004f3565b865550620005ec565b601f198416620005968662000344565b5f5b82811015620005bf5784890151825560018201915060208501945060208101905062000598565b86831015620005df5784890151620005db601f891682620004d5565b8355505b6001600288020188555050505b505050505050565b620005ff816200023a565b82525050565b5f6020820190506200061a5f830184620005f4565b92915050565b612dc1806200062e5f395ff3fe60806040526004361061013f575f3560e01c806370a08231116100b5578063b88d4fde1161006e578063b88d4fde1461044f578063c4e41b2214610477578063c87b56dd146104a1578063d204c45e146104dd578063e985e9c514610519578063f2fde38b146105555761013f565b806370a0823114610345578063715018a6146103815780638da5cb5b1461039757806395d89b41146103c15780639f1cabc6146103eb578063a22cb465146104275761013f565b806333c41a901161010757806333c41a90146102355780633ccfd60b1461027157806342842e0e146102875780634a60f620146102af57806351e74c2a146102d95780636352211e146103095761013f565b806301ffc9a71461014357806306fdde031461017f578063081812fc146101a9578063095ea7b3146101e557806323b872dd1461020d575b5f80fd5b34801561014e575f80fd5b5061016960048036038101906101649190611fdd565b61057d565b6040516101769190612022565b60405180910390f35b34801561018a575f80fd5b5061019361058e565b6040516101a091906120c5565b60405180910390f35b3480156101b4575f80fd5b506101cf60048036038101906101ca9190612118565b61061d565b6040516101dc9190612182565b60405180910390f35b3480156101f0575f80fd5b5061020b600480360381019061020691906121c5565b610638565b005b348015610218575f80fd5b50610233600480360381019061022e9190612203565b61064e565b005b348015610240575f80fd5b5061025b60048036038101906102569190612118565b61074d565b6040516102689190612022565b60405180910390f35b34801561027c575f80fd5b50610285610773565b005b348015610292575f80fd5b506102ad60048036038101906102a89190612203565b6107cd565b005b3480156102ba575f80fd5b506102c36107ec565b6040516102d09190612262565b60405180910390f35b6102f360048036038101906102ee91906123a7565b6107f2565b6040516103009190612262565b60405180910390f35b348015610314575f80fd5b5061032f600480360381019061032a9190612118565b6109a0565b60405161033c9190612182565b60405180910390f35b348015610350575f80fd5b5061036b60048036038101906103669190612413565b6109b1565b6040516103789190612262565b60405180910390f35b34801561038c575f80fd5b50610395610a67565b005b3480156103a2575f80fd5b506103ab610a7a565b6040516103b89190612182565b60405180910390f35b3480156103cc575f80fd5b506103d5610aa2565b6040516103e291906120c5565b60405180910390f35b3480156103f6575f80fd5b50610411600480360381019061040c919061243e565b610b32565b60405161041e9190612022565b60405180910390f35b348015610432575f80fd5b5061044d600480360381019061044891906124af565b610b65565b005b34801561045a575f80fd5b506104756004803603810190610470919061258b565b610b7b565b005b348015610482575f80fd5b5061048b610ba0565b6040516104989190612262565b60405180910390f35b3480156104ac575f80fd5b506104c760048036038101906104c29190612118565b610ba9565b6040516104d491906120c5565b60405180910390f35b3480156104e8575f80fd5b5061050360048036038101906104fe919061260b565b610bbb565b6040516105109190612262565b60405180910390f35b348015610524575f80fd5b5061053f600480360381019061053a9190612665565b610cc5565b60405161054c9190612022565b60405180910390f35b348015610560575f80fd5b5061057b60048036038101906105769190612413565b610d53565b005b5f61058782610dd7565b9050919050565b60605f805461059c906126d0565b80601f01602080910402602001604051908101604052809291908181526020018280546105c8906126d0565b80156106135780601f106105ea57610100808354040283529160200191610613565b820191905f5260205f20905b8154815290600101906020018083116105f657829003601f168201915b5050505050905090565b5f61062782610e37565b5061063182610ebd565b9050919050565b61064a8282610645610ef6565b610efd565b5050565b5f73ffffffffffffffffffffffffffffffffffffffff168273ffffffffffffffffffffffffffffffffffffffff16036106be575f6040517f64a0ae920000000000000000000000000000000000000000000000000000000081526004016106b59190612182565b60405180910390fd5b5f6106d183836106cc610ef6565b610f0f565b90508373ffffffffffffffffffffffffffffffffffffffff168173ffffffffffffffffffffffffffffffffffffffff1614610747578382826040517f64283d7b00000000000000000000000000000000000000000000000000000000815260040161073e93929190612700565b60405180910390fd5b50505050565b5f60095f8381526020019081526020015f205f9054906101000a900460ff169050919050565b61077b61111a565b5f479050610787610a7a565b73ffffffffffffffffffffffffffffffffffffffff166108fc8290811502906040515f60405180830381858888f193505050501580156107c9573d5f803e3d5ffd5b5050565b6107e783838360405180602001604052805f815250610b7b565b505050565b60085481565b5f66b1a2bc2ec5000034101561083d576040517f08c379a00000000000000000000000000000000000000000000000000000000081526004016108349061277f565b60405180910390fd5b60095f8381526020019081526020015f205f9054906101000a900460ff161561089b576040517f08c379a00000000000000000000000000000000000000000000000000000000081526004016108929061280d565b60405180910390fd5b600a836040516108ab9190612865565b90815260200160405180910390205f9054906101000a900460ff1615610906576040517f08c379a00000000000000000000000000000000000000000000000000000000081526004016108fd906128c5565b60405180910390fd5b600160095f8481526020019081526020015f205f6101000a81548160ff0219169083151502179055506001600a846040516109419190612865565b90815260200160405180910390205f6101000a81548160ff02191690831515021790555061096f84836111a1565b61097982846111be565b60085482106109965760018261098f9190612910565b6008819055505b8190509392505050565b5f6109aa82610e37565b9050919050565b5f8073ffffffffffffffffffffffffffffffffffffffff168273ffffffffffffffffffffffffffffffffffffffff1603610a22575f6040517f89c62b64000000000000000000000000000000000000000000000000000000008152600401610a199190612182565b60405180910390fd5b60035f8373ffffffffffffffffffffffffffffffffffffffff1673ffffffffffffffffffffffffffffffffffffffff1681526020019081526020015f20549050919050565b610a6f61111a565b610a785f611218565b565b5f60075f9054906101000a900473ffffffffffffffffffffffffffffffffffffffff16905090565b606060018054610ab1906126d0565b80601f0160208091040260200160405190810160405280929190818152602001828054610add906126d0565b8015610b285780601f10610aff57610100808354040283529160200191610b28565b820191905f5260205f20905b815481529060010190602001808311610b0b57829003601f168201915b5050505050905090565b5f600a82604051610b439190612865565b90815260200160405180910390205f9054906101000a900460ff169050919050565b610b77610b70610ef6565b83836112db565b5050565b610b8684848461064e565b610b9a610b91610ef6565b85858585611444565b50505050565b5f600854905090565b6060610bb4826115f0565b9050919050565b5f610bc461111a565b600a82604051610bd49190612865565b90815260200160405180910390205f9054906101000a900460ff1615610c2f576040517f08c379a0000000000000000000000000000000000000000000000000000000008152600401610c26906128c5565b60405180910390fd5b5f60085f815480929190610c4290612943565b9190505590506001600a84604051610c5a9190612865565b90815260200160405180910390205f6101000a81548160ff021916908315150217905550600160095f8381526020019081526020015f205f6101000a81548160ff021916908315150217905550610cb184826111a1565b610cbb81846111be565b8091505092915050565b5f60055f8473ffffffffffffffffffffffffffffffffffffffff1673ffffffffffffffffffffffffffffffffffffffff1681526020019081526020015f205f8373ffffffffffffffffffffffffffffffffffffffff1673ffffffffffffffffffffffffffffffffffffffff1681526020019081526020015f205f9054906101000a900460ff16905092915050565b610d5b61111a565b5f73ffffffffffffffffffffffffffffffffffffffff168173ffffffffffffffffffffffffffffffffffffffff1603610dcb575f6040517f1e4fbdf7000000000000000000000000000000000000000000000000000000008152600401610dc29190612182565b60405180910390fd5b610dd481611218565b50565b5f634906490660e01b7bffffffffffffffffffffffffffffffffffffffffffffffffffffffff1916827bffffffffffffffffffffffffffffffffffffffffffffffffffffffff19161480610e305750610e2f826116fb565b5b9050919050565b5f80610e42836117dc565b90505f73ffffffffffffffffffffffffffffffffffffffff168173ffffffffffffffffffffffffffffffffffffffff1603610eb457826040517f7e273289000000000000000000000000000000000000000000000000000000008152600401610eab9190612262565b60405180910390fd5b80915050919050565b5f60045f8381526020019081526020015f205f9054906101000a900473ffffffffffffffffffffffffffffffffffffffff169050919050565b5f33905090565b610f0a8383836001611815565b505050565b5f80610f1a846117dc565b90505f73ffffffffffffffffffffffffffffffffffffffff168373ffffffffffffffffffffffffffffffffffffffff1614610f5b57610f5a8184866119d4565b5b5f73ffffffffffffffffffffffffffffffffffffffff168173ffffffffffffffffffffffffffffffffffffffff1614610fe657610f9a5f855f80611815565b600160035f8373ffffffffffffffffffffffffffffffffffffffff1673ffffffffffffffffffffffffffffffffffffffff1681526020019081526020015f205f82825403925050819055505b5f73ffffffffffffffffffffffffffffffffffffffff168573ffffffffffffffffffffffffffffffffffffffff161461106557600160035f8773ffffffffffffffffffffffffffffffffffffffff1673ffffffffffffffffffffffffffffffffffffffff1681526020019081526020015f205f82825401925050819055505b8460025f8681526020019081526020015f205f6101000a81548173ffffffffffffffffffffffffffffffffffffffff021916908373ffffffffffffffffffffffffffffffffffffffff160217905550838573ffffffffffffffffffffffffffffffffffffffff168273ffffffffffffffffffffffffffffffffffffffff167fddf252ad1be2c89b69c2b068fc378daa952ba7f163c4a11628f55a4df523b3ef60405160405180910390a4809150509392505050565b611122610ef6565b73ffffffffffffffffffffffffffffffffffffffff16611140610a7a565b73ffffffffffffffffffffffffffffffffffffffff161461119f57611163610ef6565b6040517f118cdaa70000000000000000000000000000000000000000000000000000000081526004016111969190612182565b60405180910390fd5b565b6111ba828260405180602001604052805f815250611a97565b5050565b8060065f8481526020019081526020015f2090816111dc9190612b27565b507ff8e1a15aba9398e019f0b49df1a4fde98ee17ae345cb5f6b5e2c27f5033e8ce78260405161120c9190612262565b60405180910390a15050565b5f60075f9054906101000a900473ffffffffffffffffffffffffffffffffffffffff1690508160075f6101000a81548173ffffffffffffffffffffffffffffffffffffffff021916908373ffffffffffffffffffffffffffffffffffffffff1602179055508173ffffffffffffffffffffffffffffffffffffffff168173ffffffffffffffffffffffffffffffffffffffff167f8be0079c531659141344cd1fd0a4f28419497f9722a3daafe3b4186f6b6457e060405160405180910390a35050565b5f73ffffffffffffffffffffffffffffffffffffffff168273ffffffffffffffffffffffffffffffffffffffff160361134b57816040517f5b08ba180000000000000000000000000000000000000000000000000000000081526004016113429190612182565b60405180910390fd5b8060055f8573ffffffffffffffffffffffffffffffffffffffff1673ffffffffffffffffffffffffffffffffffffffff1681526020019081526020015f205f8473ffffffffffffffffffffffffffffffffffffffff1673ffffffffffffffffffffffffffffffffffffffff1681526020019081526020015f205f6101000a81548160ff0219169083151502179055508173ffffffffffffffffffffffffffffffffffffffff168373ffffffffffffffffffffffffffffffffffffffff167f17307eab39ab6107e8899845ad3d59bd9653f200f220920489ca2b5937696c31836040516114379190612022565b60405180910390a3505050565b5f8373ffffffffffffffffffffffffffffffffffffffff163b11156115e9578273ffffffffffffffffffffffffffffffffffffffff1663150b7a02868685856040518563ffffffff1660e01b81526004016114a29493929190612c48565b6020604051808303815f875af19250505080156114dd57506040513d601f19601f820116820180604052508101906114da9190612ca6565b60015b61155e573d805f811461150b576040519150601f19603f3d011682016040523d82523d5f602084013e611510565b606091505b505f81510361155657836040517f64a0ae9200000000000000000000000000000000000000000000000000000000815260040161154d9190612182565b60405180910390fd5b805181602001fd5b63150b7a0260e01b7bffffffffffffffffffffffffffffffffffffffffffffffffffffffff1916817bffffffffffffffffffffffffffffffffffffffffffffffffffffffff1916146115e757836040517f64a0ae920000000000000000000000000000000000000000000000000000000081526004016115de9190612182565b60405180910390fd5b505b5050505050565b60606115fb82610e37565b505f60065f8481526020019081526020015f208054611619906126d0565b80601f0160208091040260200160405190810160405280929190818152602001828054611645906126d0565b80156116905780601f1061166757610100808354040283529160200191611690565b820191905f5260205f20905b81548152906001019060200180831161167357829003601f168201915b505050505090505f6116a0611aba565b90505f8151036116b45781925050506116f6565b5f825111156116e85780826040516020016116d0929190612cd1565b604051602081830303815290604052925050506116f6565b6116f184611ada565b925050505b919050565b5f7f80ac58cd000000000000000000000000000000000000000000000000000000007bffffffffffffffffffffffffffffffffffffffffffffffffffffffff1916827bffffffffffffffffffffffffffffffffffffffffffffffffffffffff191614806117c557507f5b5e139f000000000000000000000000000000000000000000000000000000007bffffffffffffffffffffffffffffffffffffffffffffffffffffffff1916827bffffffffffffffffffffffffffffffffffffffffffffffffffffffff1916145b806117d557506117d482611b40565b5b9050919050565b5f60025f8381526020019081526020015f205f9054906101000a900473ffffffffffffffffffffffffffffffffffffffff169050919050565b808061184d57505f73ffffffffffffffffffffffffffffffffffffffff168273ffffffffffffffffffffffffffffffffffffffff1614155b1561197f575f61185c84610e37565b90505f73ffffffffffffffffffffffffffffffffffffffff168373ffffffffffffffffffffffffffffffffffffffff16141580156118c657508273ffffffffffffffffffffffffffffffffffffffff168173ffffffffffffffffffffffffffffffffffffffff1614155b80156118d957506118d78184610cc5565b155b1561191b57826040517fa9fbf51f0000000000000000000000000000000000000000000000000000000081526004016119129190612182565b60405180910390fd5b811561197d57838573ffffffffffffffffffffffffffffffffffffffff168273ffffffffffffffffffffffffffffffffffffffff167f8c5be1e5ebec7d5bd14f71427d1e84f3dd0314c0f7b2291e5b200ac8c7c3b92560405160405180910390a45b505b8360045f8581526020019081526020015f205f6101000a81548173ffffffffffffffffffffffffffffffffffffffff021916908373ffffffffffffffffffffffffffffffffffffffff16021790555050505050565b6119df838383611ba9565b611a92575f73ffffffffffffffffffffffffffffffffffffffff168373ffffffffffffffffffffffffffffffffffffffff1603611a5357806040517f7e273289000000000000000000000000000000000000000000000000000000008152600401611a4a9190612262565b60405180910390fd5b81816040517f177e802f000000000000000000000000000000000000000000000000000000008152600401611a89929190612cf4565b60405180910390fd5b505050565b611aa18383611c69565b611ab5611aac610ef6565b5f858585611444565b505050565b6060604051806080016040528060438152602001612d4960439139905090565b6060611ae582610e37565b505f611aef611aba565b90505f815111611b0d5760405180602001604052805f815250611b38565b80611b1784611d5c565b604051602001611b28929190612cd1565b6040516020818303038152906040525b915050919050565b5f7f01ffc9a7000000000000000000000000000000000000000000000000000000007bffffffffffffffffffffffffffffffffffffffffffffffffffffffff1916827bffffffffffffffffffffffffffffffffffffffffffffffffffffffff1916149050919050565b5f8073ffffffffffffffffffffffffffffffffffffffff168373ffffffffffffffffffffffffffffffffffffffff1614158015611c6057508273ffffffffffffffffffffffffffffffffffffffff168473ffffffffffffffffffffffffffffffffffffffff161480611c215750611c208484610cc5565b5b80611c5f57508273ffffffffffffffffffffffffffffffffffffffff16611c4783610ebd565b73ffffffffffffffffffffffffffffffffffffffff16145b5b90509392505050565b5f73ffffffffffffffffffffffffffffffffffffffff168273ffffffffffffffffffffffffffffffffffffffff1603611cd9575f6040517f64a0ae92000000000000000000000000000000000000000000000000000000008152600401611cd09190612182565b60405180910390fd5b5f611ce583835f610f0f565b90505f73ffffffffffffffffffffffffffffffffffffffff168173ffffffffffffffffffffffffffffffffffffffff1614611d57575f6040517f73c6ac6e000000000000000000000000000000000000000000000000000000008152600401611d4e9190612182565b60405180910390fd5b505050565b60605f6001611d6a84611e26565b0190505f8167ffffffffffffffff811115611d8857611d87612283565b5b6040519080825280601f01601f191660200182016040528015611dba5781602001600182028036833780820191505090505b5090505f82602001820190505b600115611e1b578080600190039150507f3031323334353637383961626364656600000000000000000000000000000000600a86061a8153600a8581611e1057611e0f612d1b565b5b0494505f8503611dc7575b819350505050919050565b5f805f90507a184f03e93ff9f4daa797ed6e38ed64bf6a1f0100000000000000008310611e82577a184f03e93ff9f4daa797ed6e38ed64bf6a1f0100000000000000008381611e7857611e77612d1b565b5b0492506040810190505b6d04ee2d6d415b85acef81000000008310611ebf576d04ee2d6d415b85acef81000000008381611eb557611eb4612d1b565b5b0492506020810190505b662386f26fc100008310611eee57662386f26fc100008381611ee457611ee3612d1b565b5b0492506010810190505b6305f5e1008310611f17576305f5e1008381611f0d57611f0c612d1b565b5b0492506008810190505b6127108310611f3c576127108381611f3257611f31612d1b565b5b0492506004810190505b60648310611f5f5760648381611f5557611f54612d1b565b5b0492506002810190505b600a8310611f6e576001810190505b80915050919050565b5f604051905090565b5f80fd5b5f80fd5b5f7fffffffff0000000000000000000000000000000000000000000000000000000082169050919050565b611fbc81611f88565b8114611fc6575f80fd5b50565b5f81359050611fd781611fb3565b92915050565b5f60208284031215611ff257611ff1611f80565b5b5f611fff84828501611fc9565b91505092915050565b5f8115159050919050565b61201c81612008565b82525050565b5f6020820190506120355f830184612013565b92915050565b5f81519050919050565b5f82825260208201905092915050565b5f5b83811015612072578082015181840152602081019050612057565b5f8484015250505050565b5f601f19601f8301169050919050565b5f6120978261203b565b6120a18185612045565b93506120b1818560208601612055565b6120ba8161207d565b840191505092915050565b5f6020820190508181035f8301526120dd818461208d565b905092915050565b5f819050919050565b6120f7816120e5565b8114612101575f80fd5b50565b5f81359050612112816120ee565b92915050565b5f6020828403121561212d5761212c611f80565b5b5f61213a84828501612104565b91505092915050565b5f73ffffffffffffffffffffffffffffffffffffffff82169050919050565b5f61216c82612143565b9050919050565b61217c81612162565b82525050565b5f6020820190506121955f830184612173565b92915050565b6121a481612162565b81146121ae575f80fd5b50565b5f813590506121bf8161219b565b92915050565b5f80604083850312156121db576121da611f80565b5b5f6121e8858286016121b1565b92505060206121f985828601612104565b9150509250929050565b5f805f6060848603121561221a57612219611f80565b5b5f612227868287016121b1565b9350506020612238868287016121b1565b925050604061224986828701612104565b9150509250925092565b61225c816120e5565b82525050565b5f6020820190506122755f830184612253565b92915050565b5f80fd5b5f80fd5b7f4e487b71000000000000000000000000000000000000000000000000000000005f52604160045260245ffd5b6122b98261207d565b810181811067ffffffffffffffff821117156122d8576122d7612283565b5b80604052505050565b5f6122ea611f77565b90506122f682826122b0565b919050565b5f67ffffffffffffffff82111561231557612314612283565b5b61231e8261207d565b9050602081019050919050565b828183375f83830152505050565b5f61234b612346846122fb565b6122e1565b9050828152602081018484840111156123675761236661227f565b5b61237284828561232b565b509392505050565b5f82601f83011261238e5761238d61227b565b5b813561239e848260208601612339565b91505092915050565b5f805f606084860312156123be576123bd611f80565b5b5f6123cb868287016121b1565b935050602084013567ffffffffffffffff8111156123ec576123eb611f84565b5b6123f88682870161237a565b925050604061240986828701612104565b9150509250925092565b5f6020828403121561242857612427611f80565b5b5f612435848285016121b1565b91505092915050565b5f6020828403121561245357612452611f80565b5b5f82013567ffffffffffffffff8111156124705761246f611f84565b5b61247c8482850161237a565b91505092915050565b61248e81612008565b8114612498575f80fd5b50565b5f813590506124a981612485565b92915050565b5f80604083850312156124c5576124c4611f80565b5b5f6124d2858286016121b1565b92505060206124e38582860161249b565b9150509250929050565b5f67ffffffffffffffff82111561250757612506612283565b5b6125108261207d565b9050602081019050919050565b5f61252f61252a846124ed565b6122e1565b90508281526020810184848401111561254b5761254a61227f565b5b61255684828561232b565b509392505050565b5f82601f8301126125725761257161227b565b5b813561258284826020860161251d565b91505092915050565b5f805f80608085870312156125a3576125a2611f80565b5b5f6125b0878288016121b1565b94505060206125c1878288016121b1565b93505060406125d287828801612104565b925050606085013567ffffffffffffffff8111156125f3576125f2611f84565b5b6125ff8782880161255e565b91505092959194509250565b5f806040838503121561262157612620611f80565b5b5f61262e858286016121b1565b925050602083013567ffffffffffffffff81111561264f5761264e611f84565b5b61265b8582860161237a565b9150509250929050565b5f806040838503121561267b5761267a611f80565b5b5f612688858286016121b1565b9250506020612699858286016121b1565b9150509250929050565b7f4e487b71000000000000000000000000000000000000000000000000000000005f52602260045260245ffd5b5f60028204905060018216806126e757607f821691505b6020821081036126fa576126f96126a3565b5b50919050565b5f6060820190506127135f830186612173565b6127206020830185612253565b61272d6040830184612173565b949350505050565b7f496e73756666696369656e742066756e647300000000000000000000000000005f82015250565b5f612769601283612045565b915061277482612735565b602082019050919050565b5f6020820190508181035f8301526127968161275d565b9050919050565b7f5468697320746f6b656e2049442068617320616c7265616479206265656e206d5f8201527f696e746564000000000000000000000000000000000000000000000000000000602082015250565b5f6127f7602583612045565b91506128028261279d565b604082019050919050565b5f6020820190508181035f830152612824816127eb565b9050919050565b5f81905092915050565b5f61283f8261203b565b612849818561282b565b9350612859818560208601612055565b80840191505092915050565b5f6128708284612835565b915081905092915050565b7f4e465420616c7265616479206d696e74656420776974682074686973205552495f82015250565b5f6128af602083612045565b91506128ba8261287b565b602082019050919050565b5f6020820190508181035f8301526128dc816128a3565b9050919050565b7f4e487b71000000000000000000000000000000000000000000000000000000005f52601160045260245ffd5b5f61291a826120e5565b9150612925836120e5565b925082820190508082111561293d5761293c6128e3565b5b92915050565b5f61294d826120e5565b91507fffffffffffffffffffffffffffffffffffffffffffffffffffffffffffffffff820361297f5761297e6128e3565b5b600182019050919050565b5f819050815f5260205f209050919050565b5f6020601f8301049050919050565b5f82821b905092915050565b5f600883026129e67fffffffffffffffffffffffffffffffffffffffffffffffffffffffffffffffff826129ab565b6129f086836129ab565b95508019841693508086168417925050509392505050565b5f819050919050565b5f612a2b612a26612a21846120e5565b612a08565b6120e5565b9050919050565b5f819050919050565b612a4483612a11565b612a58612a5082612a32565b8484546129b7565b825550505050565b5f90565b612a6c612a60565b612a77818484612a3b565b505050565b5b81811015612a9a57612a8f5f82612a64565b600181019050612a7d565b5050565b601f821115612adf57612ab08161298a565b612ab98461299c565b81016020851015612ac8578190505b612adc612ad48561299c565b830182612a7c565b50505b505050565b5f82821c905092915050565b5f612aff5f1984600802612ae4565b1980831691505092915050565b5f612b178383612af0565b9150826002028217905092915050565b612b308261203b565b67ffffffffffffffff811115612b4957612b48612283565b5b612b5382546126d0565b612b5e828285612a9e565b5f60209050601f831160018114612b8f575f8415612b7d578287015190505b612b878582612b0c565b865550612bee565b601f198416612b9d8661298a565b5f5b82811015612bc457848901518255600182019150602085019450602081019050612b9f565b86831015612be15784890151612bdd601f891682612af0565b8355505b6001600288020188555050505b505050505050565b5f81519050919050565b5f82825260208201905092915050565b5f612c1a82612bf6565b612c248185612c00565b9350612c34818560208601612055565b612c3d8161207d565b840191505092915050565b5f608082019050612c5b5f830187612173565b612c686020830186612173565b612c756040830185612253565b8181036060830152612c878184612c10565b905095945050505050565b5f81519050612ca081611fb3565b92915050565b5f60208284031215612cbb57612cba611f80565b5b5f612cc884828501612c92565b91505092915050565b5f612cdc8285612835565b9150612ce88284612835565b91508190509392505050565b5f604082019050612d075f830185612173565b612d146020830184612253565b9392505050565b7f4e487b71000000000000000000000000000000000000000000000000000000005f52601260045260245ffdfe697066733a2f2f6261667962656966376f6574747079376c376a377065346c7063717a72336866756d376470643235713479783561336d6f683778347562666871792fa26469706673582212203025d859dcf8834a797e6b40e393cfb3d77488456944f5fc4e7fb36755b3d89e64736f6c63430008140033",
  "immutableReferences": {},
  "source": "// SPDX-License-Identifier: MIT\r\npragma solidity ^0.8.20;\r\n\r\nimport {ERC721} from \"@openzeppelin/contracts/token/ERC721/ERC721.sol\";\r\nimport {ERC721URIStorage} from \"@openzeppelin/contracts/token/ERC721/extensions/ERC721URIStorage.sol\";\r\nimport {Ownable} from \"@openzeppelin/contracts/access/Ownable.sol\";\r\n\r\ncontract MyNFT is ERC721, ERC721URIStorage, Ownable {\r\n    uint256 public _nextTokenId; // Tracks the next available token ID for auto-incrementing mints\r\n    mapping(uint256 => bool) private _mintedTokens; // Tracks which token IDs have been minted\r\n    mapping(string => bool) private existingURIs; // Tracks used metadata URIs\r\n\r\n    constructor(address initialOwner)\r\n        ERC721(\"MyNFT\", \"ETH\")\r\n        Ownable(initialOwner)\r\n    {}\r\n\r\n    function _baseURI() internal pure override returns (string memory) {\r\n        return \"ipfs://bafybeif7oettpy7l7j7pe4lpcqzr3hfum7dpd25q4yx5a3moh7x4ubfhqy/\";\r\n    }\r\n\r\n    // Owner-only mint function (kept as is)\r\n    function safeMint(address to, string memory uri)\r\n        public\r\n        onlyOwner\r\n        returns (uint256)\r\n    {\r\n        require(!existingURIs[uri], \"NFT already minted with this URI\");\r\n\r\n        uint256 tokenId = _nextTokenId++;\r\n        existingURIs[uri] = true;\r\n        _mintedTokens[tokenId] = true;\r\n\r\n        _safeMint(to, tokenId);\r\n        _setTokenURI(tokenId, uri);\r\n        return tokenId;\r\n    }\r\n\r\n    // Public mint function with payment and specific tokenId\r\n    function payToMint(address recipient, string memory metadataURI, uint256 tokenId)\r\n        public\r\n        payable\r\n        returns (uint256)\r\n    {\r\n        require(msg.value >= 0.05 ether, \"Insufficient funds\");\r\n        require(!_mintedTokens[tokenId], \"This token ID has already been minted\");\r\n        require(!existingURIs[metadataURI], \"NFT already minted with this URI\");\r\n\r\n        _mintedTokens[tokenId] = true;\r\n        existingURIs[metadataURI] = true;\r\n\r\n        _safeMint(recipient, tokenId);\r\n        _setTokenURI(tokenId, metadataURI);\r\n\r\n        // Update _nextTokenId if necessary (to avoid collisions with auto-incrementing mints)\r\n        if (tokenId >= _nextTokenId) {\r\n            _nextTokenId = tokenId + 1;\r\n        }\r\n\r\n        return tokenId;\r\n    }\r\n\r\n    // Check if a token ID has been minted\r\n    function isMinted(uint256 tokenId) public view returns (bool) {\r\n        return _mintedTokens[tokenId];\r\n    }\r\n\r\n    // Check if a URI is already used\r\n    function isContentOwned(string memory uri) public view returns (bool) {\r\n        return existingURIs[uri];\r\n    }\r\n\r\n    // Get the total number of tokens minted\r\n    function getTotalSupply() public view returns (uint256) {\r\n        return _nextTokenId;\r\n    }\r\n\r\n    // Withdraw funds (optional, for owner)\r\n    function withdraw() public onlyOwner {\r\n        uint256 balance = address(this).balance;\r\n        payable(owner()).transfer(balance);\r\n    }\r\n\r\n    // Required overrides\r\n    function tokenURI(uint256 tokenId)\r\n        public\r\n        view\r\n        override(ERC721, ERC721URIStorage)\r\n        returns (string memory)\r\n    {\r\n        return super.tokenURI(tokenId);\r\n    }\r\n\r\n    function supportsInterface(bytes4 interfaceId)\r\n        public\r\n        view\r\n        override(ERC721, ERC721URIStorage)\r\n        returns (bool)\r\n    {\r\n        return super.supportsInterface(interfaceId);\r\n    }\r\n}",
  "sourcePath": "D:\\S2-group12\\Group12-COS300049\\backend\\contracts\\MyNFT.sol",
  "compiler": {
    "name": "solc",
    "version": "0.8.20+commit.a1b79de6.Emscripten.clang"
  },
  "schemaVersion": "3.4.16",
  "updatedAt": "2025-03-26T02:22:14.932Z",
  "networkType": "ethereum",
  "devdoc": {
    "errors": {
      "ERC721IncorrectOwner(address,uint256,address)": [
        {
          "details": "Indicates an error related to the ownership over a particular token. Used in transfers.",
          "params": {
            "owner": "Address of the current owner of a token.",
            "sender": "Address whose tokens are being transferred.",
            "tokenId": "Identifier number of a token."
          }
        }
      ],
      "ERC721InsufficientApproval(address,uint256)": [
        {
          "details": "Indicates a failure with the `operator`s approval. Used in transfers.",
          "params": {
            "operator": "Address that may be allowed to operate on tokens without being their owner.",
            "tokenId": "Identifier number of a token."
          }
        }
      ],
      "ERC721InvalidApprover(address)": [
        {
          "details": "Indicates a failure with the `approver` of a token to be approved. Used in approvals.",
          "params": {
            "approver": "Address initiating an approval operation."
          }
        }
      ],
      "ERC721InvalidOperator(address)": [
        {
          "details": "Indicates a failure with the `operator` to be approved. Used in approvals.",
          "params": {
            "operator": "Address that may be allowed to operate on tokens without being their owner."
          }
        }
      ],
      "ERC721InvalidOwner(address)": [
        {
          "details": "Indicates that an address can't be an owner. For example, `address(0)` is a forbidden owner in ERC-20. Used in balance queries.",
          "params": {
            "owner": "Address of the current owner of a token."
          }
        }
      ],
      "ERC721InvalidReceiver(address)": [
        {
          "details": "Indicates a failure with the token `receiver`. Used in transfers.",
          "params": {
            "receiver": "Address to which tokens are being transferred."
          }
        }
      ],
      "ERC721InvalidSender(address)": [
        {
          "details": "Indicates a failure with the token `sender`. Used in transfers.",
          "params": {
            "sender": "Address whose tokens are being transferred."
          }
        }
      ],
      "ERC721NonexistentToken(uint256)": [
        {
          "details": "Indicates a `tokenId` whose `owner` is the zero address.",
          "params": {
            "tokenId": "Identifier number of a token."
          }
        }
      ],
      "OwnableInvalidOwner(address)": [
        {
          "details": "The owner is not a valid owner account. (eg. `address(0)`)"
        }
      ],
      "OwnableUnauthorizedAccount(address)": [
        {
          "details": "The caller account is not authorized to perform an operation."
        }
      ]
    },
    "events": {
      "Approval(address,address,uint256)": {
        "details": "Emitted when `owner` enables `approved` to manage the `tokenId` token."
      },
      "ApprovalForAll(address,address,bool)": {
        "details": "Emitted when `owner` enables or disables (`approved`) `operator` to manage all of its assets."
      },
      "BatchMetadataUpdate(uint256,uint256)": {
        "details": "This event emits when the metadata of a range of tokens is changed. So that the third-party platforms such as NFT market could timely update the images and related attributes of the NFTs."
      },
      "MetadataUpdate(uint256)": {
        "details": "This event emits when the metadata of a token is changed. So that the third-party platforms such as NFT market could timely update the images and related attributes of the NFT."
      },
      "Transfer(address,address,uint256)": {
        "details": "Emitted when `tokenId` token is transferred from `from` to `to`."
      }
    },
    "kind": "dev",
    "methods": {
      "approve(address,uint256)": {
        "details": "See {IERC721-approve}."
      },
      "balanceOf(address)": {
        "details": "See {IERC721-balanceOf}."
      },
      "getApproved(uint256)": {
        "details": "See {IERC721-getApproved}."
      },
      "isApprovedForAll(address,address)": {
        "details": "See {IERC721-isApprovedForAll}."
      },
      "name()": {
        "details": "See {IERC721Metadata-name}."
      },
      "owner()": {
        "details": "Returns the address of the current owner."
      },
      "ownerOf(uint256)": {
        "details": "See {IERC721-ownerOf}."
      },
      "renounceOwnership()": {
        "details": "Leaves the contract without owner. It will not be possible to call `onlyOwner` functions. Can only be called by the current owner. NOTE: Renouncing ownership will leave the contract without an owner, thereby disabling any functionality that is only available to the owner."
      },
      "safeTransferFrom(address,address,uint256)": {
        "details": "See {IERC721-safeTransferFrom}."
      },
      "safeTransferFrom(address,address,uint256,bytes)": {
        "details": "See {IERC721-safeTransferFrom}."
      },
      "setApprovalForAll(address,bool)": {
        "details": "See {IERC721-setApprovalForAll}."
      },
      "symbol()": {
        "details": "See {IERC721Metadata-symbol}."
      },
      "transferFrom(address,address,uint256)": {
        "details": "See {IERC721-transferFrom}."
      },
      "transferOwnership(address)": {
        "details": "Transfers ownership of the contract to a new account (`newOwner`). Can only be called by the current owner."
      }
    },
    "version": 1
  },
  "userdoc": {
    "kind": "user",
    "methods": {},
    "version": 1
  }
}