{
  "contractName": "SetBalances",
  "abi": [
    {
      "inputs": [],
      "stateMutability": "nonpayable",
      "type": "constructor"
    },
    {
      "inputs": [],
      "name": "admin",
      "outputs": [
        {
          "internalType": "address",
          "name": "",
          "type": "address"
        }
      ],
      "stateMutability": "view",
      "type": "function",
      "constant": true
    },
    {
      "stateMutability": "payable",
      "type": "receive",
      "payable": true
    },
    {
      "inputs": [
        {
          "internalType": "address",
          "name": "adminAddress",
          "type": "address"
        }
      ],
      "name": "setAdminBalance",
      "outputs": [],
      "stateMutability": "nonpayable",
      "type": "function"
    },
    {
      "inputs": [
        {
          "internalType": "address[]",
          "name": "addresses",
          "type": "address[]"
        }
      ],
      "name": "setAllToZero",
      "outputs": [],
      "stateMutability": "nonpayable",
      "type": "function"
    }
  ],
  "bytecode": "0x608060405234801561001057600080fd5b50336000806101000a81548173ffffffffffffffffffffffffffffffffffffffff021916908373ffffffffffffffffffffffffffffffffffffffff1602179055506106cd806100606000396000f3fe6080604052600436106100385760003560e01c806308dc5bf1146100445780633a0d4a0a1461006d578063f851a440146100965761003f565b3661003f57005b600080fd5b34801561005057600080fd5b5061006b600480360381019061006691906104a4565b6100c1565b005b34801561007957600080fd5b50610094600480360381019061008f91906104ed565b6101d4565b005b3480156100a257600080fd5b506100ab6102b5565b6040516100b89190610529565b60405180910390f35b60008054906101000a900473ffffffffffffffffffffffffffffffffffffffff1673ffffffffffffffffffffffffffffffffffffffff163373ffffffffffffffffffffffffffffffffffffffff161461014f576040517f08c379a0000000000000000000000000000000000000000000000000000000008152600401610146906105c7565b60405180910390fd5b60005b81518110156101d05781818151811061016e5761016d6105e7565b5b602002602001015173ffffffffffffffffffffffffffffffffffffffff166108fc60009081150290604051600060405180830381858888f193505050501580156101bc573d6000803e3d6000fd5b5080806101c89061064f565b915050610152565b5050565b60008054906101000a900473ffffffffffffffffffffffffffffffffffffffff1673ffffffffffffffffffffffffffffffffffffffff163373ffffffffffffffffffffffffffffffffffffffff1614610262576040517f08c379a0000000000000000000000000000000000000000000000000000000008152600401610259906105c7565b60405180910390fd5b8073ffffffffffffffffffffffffffffffffffffffff166108fc68056bc75e2d631000009081150290604051600060405180830381858888f193505050501580156102b1573d6000803e3d6000fd5b5050565b60008054906101000a900473ffffffffffffffffffffffffffffffffffffffff1681565b6000604051905090565b600080fd5b600080fd5b600080fd5b6000601f19601f8301169050919050565b7f4e487b7100000000000000000000000000000000000000000000000000000000600052604160045260246000fd5b61033b826102f2565b810181811067ffffffffffffffff8211171561035a57610359610303565b5b80604052505050565b600061036d6102d9565b90506103798282610332565b919050565b600067ffffffffffffffff82111561039957610398610303565b5b602082029050602081019050919050565b600080fd5b600073ffffffffffffffffffffffffffffffffffffffff82169050919050565b60006103da826103af565b9050919050565b6103ea816103cf565b81146103f557600080fd5b50565b600081359050610407816103e1565b92915050565b600061042061041b8461037e565b610363565b90508083825260208201905060208402830185811115610443576104426103aa565b5b835b8181101561046c578061045888826103f8565b845260208401935050602081019050610445565b5050509392505050565b600082601f83011261048b5761048a6102ed565b5b813561049b84826020860161040d565b91505092915050565b6000602082840312156104ba576104b96102e3565b5b600082013567ffffffffffffffff8111156104d8576104d76102e8565b5b6104e484828501610476565b91505092915050565b600060208284031215610503576105026102e3565b5b6000610511848285016103f8565b91505092915050565b610523816103cf565b82525050565b600060208201905061053e600083018461051a565b92915050565b600082825260208201905092915050565b7f4f6e6c79207468652061646d696e2063616e20736574207468652062616c616e60008201527f6365000000000000000000000000000000000000000000000000000000000000602082015250565b60006105b1602283610544565b91506105bc82610555565b604082019050919050565b600060208201905081810360008301526105e0816105a4565b9050919050565b7f4e487b7100000000000000000000000000000000000000000000000000000000600052603260045260246000fd5b7f4e487b7100000000000000000000000000000000000000000000000000000000600052601160045260246000fd5b6000819050919050565b600061065a82610645565b91507fffffffffffffffffffffffffffffffffffffffffffffffffffffffffffffffff820361068c5761068b610616565b5b60018201905091905056fea264697066735822122085780cf2f8b0e674135ad4f8425cff32282392f602cae475e0de43fe684e82ee64736f6c63430008100033",
  "immutableReferences": {},
  "source": "// SPDX-License-Identifier: MIT\r\npragma solidity ^0.8.16;\r\n\r\ncontract SetBalances {\r\n\r\n    address public admin;\r\n    \r\n    constructor() {\r\n        admin = msg.sender; // The address deploying the contract\r\n    }\r\n\r\n    // Function to transfer 100 ETH to the admin address\r\n    function setAdminBalance(address adminAddress) public {\r\n        require(msg.sender == admin, \"Only the admin can set the balance\");\r\n        \r\n        // Transfer 100 ETH to admin address\r\n        payable(adminAddress).transfer(100 ether);\r\n    }\r\n\r\n    // Function to set all other accounts to 0 ETH (burning their balance)\r\n    function setAllToZero(address[] memory addresses) public {\r\n        require(msg.sender == admin, \"Only the admin can set the balance\");\r\n        \r\n        for (uint i = 0; i < addresses.length; i++) {\r\n            // Burn balance of each address (set to 0 ETH)\r\n            payable(addresses[i]).transfer(0 ether);\r\n        }\r\n    }\r\n    \r\n    // Fallback function to receive Ether\r\n    receive() external payable {}\r\n}\r\n",
  "sourcePath": "C:\\Users\\Admin\\Documents\\GitHub\\Group12-COS300049\\backend\\contracts\\SetBalances.sol",
  "compiler": {
    "name": "solc",
    "version": "0.8.16+commit.07a7930e.Emscripten.clang"
  },
  "schemaVersion": "3.4.16",
  "updatedAt": "2025-03-05T15:58:43.634Z",
  "networkType": "ethereum",
  "devdoc": {
    "kind": "dev",
    "methods": {},
    "version": 1
  },
  "userdoc": {
    "kind": "user",
    "methods": {},
    "version": 1
  }
}