{
  "contractName": "TransferFunds",
  "abi": [
    {
      "inputs": [],
      "name": "keeper",
      "outputs": [
        {
          "internalType": "address payable",
          "name": "",
          "type": "address"
        }
      ],
      "stateMutability": "view",
      "type": "function",
      "constant": true
    },
    {
      "stateMutability": "payable",
      "type": "receive",
      "payable": true
    },
    {
      "inputs": [],
      "name": "transferToKeeper",
      "outputs": [],
      "stateMutability": "payable",
      "type": "function",
      "payable": true
    },
    {
      "inputs": [
        {
          "internalType": "address payable",
          "name": "to",
          "type": "address"
        }
      ],
      "name": "withdraw",
      "outputs": [],
      "stateMutability": "nonpayable",
      "type": "function"
    }
  ],
  "bytecode": "0x6080604052722f3e5e9087467d5735f92fe051ffff24abfea96000806101000a81548173ffffffffffffffffffffffffffffffffffffffff021916908373ffffffffffffffffffffffffffffffffffffffff16021790555034801561006357600080fd5b50610423806100736000396000f3fe6080604052600436106100385760003560e01c806351cff8d914610044578063aced16611461006d578063de3ec523146100985761003f565b3661003f57005b600080fd5b34801561005057600080fd5b5061006b600480360381019061006691906102ad565b6100a2565b005b34801561007957600080fd5b5061008261017a565b60405161008f91906102e9565b60405180910390f35b6100a061019e565b005b60008054906101000a900473ffffffffffffffffffffffffffffffffffffffff1673ffffffffffffffffffffffffffffffffffffffff163373ffffffffffffffffffffffffffffffffffffffff1614610130576040517f08c379a000000000000000000000000000000000000000000000000000000000815260040161012790610361565b60405180910390fd5b8073ffffffffffffffffffffffffffffffffffffffff166108fc479081150290604051600060405180830381858888f19350505050158015610176573d6000803e3d6000fd5b5050565b60008054906101000a900473ffffffffffffffffffffffffffffffffffffffff1681565b600047116101e1576040517f08c379a00000000000000000000000000000000000000000000000000000000081526004016101d8906103cd565b60405180910390fd5b60008054906101000a900473ffffffffffffffffffffffffffffffffffffffff1673ffffffffffffffffffffffffffffffffffffffff166108fc479081150290604051600060405180830381858888f19350505050158015610247573d6000803e3d6000fd5b50565b600080fd5b600073ffffffffffffffffffffffffffffffffffffffff82169050919050565b600061027a8261024f565b9050919050565b61028a8161026f565b811461029557600080fd5b50565b6000813590506102a781610281565b92915050565b6000602082840312156102c3576102c261024a565b5b60006102d184828501610298565b91505092915050565b6102e38161026f565b82525050565b60006020820190506102fe60008301846102da565b92915050565b600082825260208201905092915050565b7f4f6e6c79206b65657065722063616e2077697468647261770000000000000000600082015250565b600061034b601883610304565b915061035682610315565b602082019050919050565b6000602082019050818103600083015261037a8161033e565b9050919050565b7f4e6f2066756e647320746f207472616e73666572000000000000000000000000600082015250565b60006103b7601483610304565b91506103c282610381565b602082019050919050565b600060208201905081810360008301526103e6816103aa565b905091905056fea26469706673582212201bad58c8fd133370e6a4aa9c2e50885129943f3fe7782388700255158f0a688364736f6c63430008100033",
  "immutableReferences": {},
  "source": "// SPDX-License-Identifier: MIT\r\npragma solidity ^0.8.0;\r\n\r\ncontract TransferFunds {\r\n    // Address of the account that should keep ETH\r\n    address payable public keeper = payable(0x002F3E5e9087467D5735F92fE051ffFf24AbFeA9);\r\n\r\n    // Function to transfer ETH from this contract to the keeper account\r\n    function transferToKeeper() public payable {\r\n        // Make sure there is some balance to transfer\r\n        require(address(this).balance > 0, \"No funds to transfer\");\r\n\r\n        // Transfer the ETH to the keeper account\r\n        keeper.transfer(address(this).balance);\r\n    }\r\n\r\n    // Fallback function to accept any ETH sent to the contract\r\n    receive() external payable {}\r\n\r\n    // Withdraw function (optional) to allow owner to withdraw funds if needed\r\n    function withdraw(address payable to) public {\r\n        require(msg.sender == keeper, \"Only keeper can withdraw\");\r\n        to.transfer(address(this).balance);\r\n    }\r\n}\r\n",
  "sourcePath": "C:\\Users\\Admin\\Documents\\GitHub\\Group12-COS300049\\backend\\contracts\\TransferFunds.sol",
  "compiler": {
    "name": "solc",
    "version": "0.8.16+commit.07a7930e.Emscripten.clang"
  },
  "schemaVersion": "3.4.16",
  "updatedAt": "2025-03-05T15:58:43.581Z",
  "networkType": "ethereum",
  "devdoc": {
    "kind": "dev",
    "methods": {},
    "version": 1
  },
  "userdoc": {
    "kind": "user",
    "methods": {},
    "version": 1
  }
}