{
  "contractName": "YourContract",
  "abi": [
    {
      "inputs": [],
      "stateMutability": "nonpayable",
      "type": "constructor"
    },
    {
      "inputs": [],
      "name": "owner",
      "outputs": [
        {
          "internalType": "address",
          "name": "",
          "type": "address"
        }
      ],
      "stateMutability": "view",
      "type": "function"
    },
    {
      "stateMutability": "payable",
      "type": "receive"
    },
    {
      "inputs": [],
      "name": "transferAllToOwner",
      "outputs": [],
      "stateMutability": "nonpayable",
      "type": "function"
    }
  ],
  "bytecode": "0x608060405234801561001057600080fd5b50336000806101000a81548173ffffffffffffffffffffffffffffffffffffffff021916908373ffffffffffffffffffffffffffffffffffffffff1602179055506102cb806100606000396000f3fe60806040526004361061002d5760003560e01c806324e581be146100395780638da5cb5b1461005057610034565b3661003457005b600080fd5b34801561004557600080fd5b5061004e61007b565b005b34801561005c57600080fd5b50610065610172565b60405161007291906101d7565b60405180910390f35b60008054906101000a900473ffffffffffffffffffffffffffffffffffffffff1673ffffffffffffffffffffffffffffffffffffffff163373ffffffffffffffffffffffffffffffffffffffff1614610109576040517f08c379a000000000000000000000000000000000000000000000000000000000815260040161010090610275565b60405180910390fd5b60008054906101000a900473ffffffffffffffffffffffffffffffffffffffff1673ffffffffffffffffffffffffffffffffffffffff166108fc479081150290604051600060405180830381858888f1935050505015801561016f573d6000803e3d6000fd5b50565b60008054906101000a900473ffffffffffffffffffffffffffffffffffffffff1681565b600073ffffffffffffffffffffffffffffffffffffffff82169050919050565b60006101c182610196565b9050919050565b6101d1816101b6565b82525050565b60006020820190506101ec60008301846101c8565b92915050565b600082825260208201905092915050565b7f4f6e6c7920746865206f776e65722063616e207472616e736665722066756e6460008201527f7300000000000000000000000000000000000000000000000000000000000000602082015250565b600061025f6021836101f2565b915061026a82610203565b604082019050919050565b6000602082019050818103600083015261028e81610252565b905091905056fea2646970667358221220435f2dc273ae75250085575919b2e827ce5c2cecdb712d2ca9aa8f572455c87164736f6c63430008100033",
  "immutableReferences": {},
  "source": "// SPDX-License-Identifier: MIT\r\npragma solidity ^0.8.0;\r\n\r\ncontract YourContract {\r\n    address public owner;\r\n\r\n    constructor() {\r\n        owner = msg.sender;  // Set the owner to be the deployer of the contract\r\n    }\r\n\r\n    // Example function to transfer all funds (ETH) to the owner (admin address)\r\n    function transferAllToOwner() public {\r\n        require(msg.sender == owner, \"Only the owner can transfer funds\");\r\n\r\n        // Transfer all balance to the owner\r\n        payable(owner).transfer(address(this).balance);\r\n    }\r\n\r\n    // Fallback function to receive ETH\r\n    receive() external payable {}\r\n}\r\n",
  "sourcePath": "/Users/toanchung/Documents/GitHub/Group12-COS300049/backend/contracts/Contract.sol",
  "compiler": {
    "name": "solc",
    "version": "0.8.16+commit.07a7930e.Emscripten.clang"
  },
  "schemaVersion": "3.4.16",
  "updatedAt": "2025-03-06T12:39:30.155Z",
  "devdoc": {
    "kind": "dev",
    "methods": {},
    "version": 1
  },
  "userdoc": {
    "kind": "user",
    "methods": {},
    "version": 1
  }
}