{
  "contractName": "YourContract",
  "abi": [
    {
      "inputs": [
        {
          "internalType": "string",
          "name": "_message",
          "type": "string"
        }
      ],
      "stateMutability": "nonpayable",
      "type": "constructor"
    },
    {
      "inputs": [],
      "name": "message",
      "outputs": [
        {
          "internalType": "string",
          "name": "",
          "type": "string"
        }
      ],
      "stateMutability": "view",
      "type": "function",
      "constant": true
    },
    {
      "inputs": [],
      "name": "owner",
      "outputs": [
        {
          "internalType": "address",
          "name": "",
          "type": "address"
        }
      ],
      "stateMutability": "view",
      "type": "function",
      "constant": true
    },
    {
      "stateMutability": "payable",
      "type": "receive",
      "payable": true
    },
    {
      "inputs": [
        {
          "internalType": "string",
          "name": "_message",
          "type": "string"
        }
      ],
      "name": "updateMessage",
      "outputs": [],
      "stateMutability": "nonpayable",
      "type": "function"
    },
    {
      "inputs": [],
      "name": "getMessage",
      "outputs": [
        {
          "internalType": "string",
          "name": "",
          "type": "string"
        }
      ],
      "stateMutability": "view",
      "type": "function",
      "constant": true
    }
  ],
  "bytecode": "0x60806040523480156200001157600080fd5b5060405162000dc738038062000dc7833981810160405281019062000037919062000224565b8060009081620000489190620004c0565b5033600160006101000a81548173ffffffffffffffffffffffffffffffffffffffff021916908373ffffffffffffffffffffffffffffffffffffffff16021790555050620005a7565b6000604051905090565b600080fd5b600080fd5b600080fd5b600080fd5b6000601f19601f8301169050919050565b7f4e487b7100000000000000000000000000000000000000000000000000000000600052604160045260246000fd5b620000fa82620000af565b810181811067ffffffffffffffff821117156200011c576200011b620000c0565b5b80604052505050565b60006200013162000091565b90506200013f8282620000ef565b919050565b600067ffffffffffffffff821115620001625762000161620000c0565b5b6200016d82620000af565b9050602081019050919050565b60005b838110156200019a5780820151818401526020810190506200017d565b60008484015250505050565b6000620001bd620001b78462000144565b62000125565b905082815260208101848484011115620001dc57620001db620000aa565b5b620001e98482856200017a565b509392505050565b600082601f830112620002095762000208620000a5565b5b81516200021b848260208601620001a6565b91505092915050565b6000602082840312156200023d576200023c6200009b565b5b600082015167ffffffffffffffff8111156200025e576200025d620000a0565b5b6200026c84828501620001f1565b91505092915050565b600081519050919050565b7f4e487b7100000000000000000000000000000000000000000000000000000000600052602260045260246000fd5b60006002820490506001821680620002c857607f821691505b602082108103620002de57620002dd62000280565b5b50919050565b60008190508160005260206000209050919050565b60006020601f8301049050919050565b600082821b905092915050565b600060088302620003487fffffffffffffffffffffffffffffffffffffffffffffffffffffffffffffffff8262000309565b62000354868362000309565b95508019841693508086168417925050509392505050565b6000819050919050565b6000819050919050565b6000620003a16200039b62000395846200036c565b62000376565b6200036c565b9050919050565b6000819050919050565b620003bd8362000380565b620003d5620003cc82620003a8565b84845462000316565b825550505050565b600090565b620003ec620003dd565b620003f9818484620003b2565b505050565b5b81811015620004215762000415600082620003e2565b600181019050620003ff565b5050565b601f82111562000470576200043a81620002e4565b6200044584620002f9565b8101602085101562000455578190505b6200046d6200046485620002f9565b830182620003fe565b50505b505050565b600082821c905092915050565b6000620004956000198460080262000475565b1980831691505092915050565b6000620004b0838362000482565b9150826002028217905092915050565b620004cb8262000275565b67ffffffffffffffff811115620004e757620004e6620000c0565b5b620004f38254620002af565b6200050082828562000425565b600060209050601f83116001811462000538576000841562000523578287015190505b6200052f8582620004a2565b8655506200059f565b601f1984166200054886620002e4565b60005b8281101562000572578489015182556001820191506020850194506020810190506200054b565b868310156200059257848901516200058e601f89168262000482565b8355505b6001600288020188555050505b505050505050565b61081080620005b76000396000f3fe6080604052600436106100435760003560e01c80631923be241461004f5780638da5cb5b14610078578063ce6d41de146100a3578063e21f37ce146100ce5761004a565b3661004a57005b600080fd5b34801561005b57600080fd5b50610076600480360381019061007191906103ac565b6100f9565b005b34801561008457600080fd5b5061008d61010c565b60405161009a9190610436565b60405180910390f35b3480156100af57600080fd5b506100b8610132565b6040516100c591906104d0565b60405180910390f35b3480156100da57600080fd5b506100e36101c4565b6040516100f091906104d0565b60405180910390f35b80600090816101089190610708565b5050565b600160009054906101000a900473ffffffffffffffffffffffffffffffffffffffff1681565b60606000805461014190610521565b80601f016020809104026020016040519081016040528092919081815260200182805461016d90610521565b80156101ba5780601f1061018f576101008083540402835291602001916101ba565b820191906000526020600020905b81548152906001019060200180831161019d57829003601f168201915b5050505050905090565b600080546101d190610521565b80601f01602080910402602001604051908101604052809291908181526020018280546101fd90610521565b801561024a5780601f1061021f5761010080835404028352916020019161024a565b820191906000526020600020905b81548152906001019060200180831161022d57829003601f168201915b505050505081565b6000604051905090565b600080fd5b600080fd5b600080fd5b600080fd5b6000601f19601f8301169050919050565b7f4e487b7100000000000000000000000000000000000000000000000000000000600052604160045260246000fd5b6102b982610270565b810181811067ffffffffffffffff821117156102d8576102d7610281565b5b80604052505050565b60006102eb610252565b90506102f782826102b0565b919050565b600067ffffffffffffffff82111561031757610316610281565b5b61032082610270565b9050602081019050919050565b82818337600083830152505050565b600061034f61034a846102fc565b6102e1565b90508281526020810184848401111561036b5761036a61026b565b5b61037684828561032d565b509392505050565b600082601f83011261039357610392610266565b5b81356103a384826020860161033c565b91505092915050565b6000602082840312156103c2576103c161025c565b5b600082013567ffffffffffffffff8111156103e0576103df610261565b5b6103ec8482850161037e565b91505092915050565b600073ffffffffffffffffffffffffffffffffffffffff82169050919050565b6000610420826103f5565b9050919050565b61043081610415565b82525050565b600060208201905061044b6000830184610427565b92915050565b600081519050919050565b600082825260208201905092915050565b60005b8381101561048b578082015181840152602081019050610470565b60008484015250505050565b60006104a282610451565b6104ac818561045c565b93506104bc81856020860161046d565b6104c581610270565b840191505092915050565b600060208201905081810360008301526104ea8184610497565b905092915050565b7f4e487b7100000000000000000000000000000000000000000000000000000000600052602260045260246000fd5b6000600282049050600182168061053957607f821691505b60208210810361054c5761054b6104f2565b5b50919050565b60008190508160005260206000209050919050565b60006020601f8301049050919050565b600082821b905092915050565b6000600883026105b47fffffffffffffffffffffffffffffffffffffffffffffffffffffffffffffffff82610577565b6105be8683610577565b95508019841693508086168417925050509392505050565b6000819050919050565b6000819050919050565b60006106056106006105fb846105d6565b6105e0565b6105d6565b9050919050565b6000819050919050565b61061f836105ea565b61063361062b8261060c565b848454610584565b825550505050565b600090565b61064861063b565b610653818484610616565b505050565b5b818110156106775761066c600082610640565b600181019050610659565b5050565b601f8211156106bc5761068d81610552565b61069684610567565b810160208510156106a5578190505b6106b96106b185610567565b830182610658565b50505b505050565b600082821c905092915050565b60006106df600019846008026106c1565b1980831691505092915050565b60006106f883836106ce565b9150826002028217905092915050565b61071182610451565b67ffffffffffffffff81111561072a57610729610281565b5b6107348254610521565b61073f82828561067b565b600060209050601f8311600181146107725760008415610760578287015190505b61076a85826106ec565b8655506107d2565b601f19841661078086610552565b60005b828110156107a857848901518255600182019150602085019450602081019050610783565b868310156107c557848901516107c1601f8916826106ce565b8355505b6001600288020188555050505b50505050505056fea2646970667358221220158094f61dfacefc95b46cf0ea1af779a30c3416fcb391af0ddfa25b778bbbf764736f6c63430008100033",
  "immutableReferences": {},
  "source": "// SPDX-License-Identifier: MIT\r\npragma solidity ^0.8.0;\r\n\r\ncontract YourContract {\r\n    string public message;\r\n    address public owner;\r\n\r\n    constructor(string memory _message) {\r\n        message = _message;\r\n        owner = msg.sender; // Set contract owner to the deployer\r\n    }\r\n\r\n    function updateMessage(string memory _message) public {\r\n        message = _message;\r\n    }\r\n\r\n    function getMessage() public view returns (string memory) {\r\n        return message;\r\n    }\r\n\r\n    receive() external payable {} // Allow the contract to receive ETH\r\n}\r\n",
  "sourcePath": "C:\\Users\\Admin\\Documents\\GitHub\\Group12-COS300049\\backend\\contracts\\YourContract.sol",
  "compiler": {
    "name": "solc",
    "version": "0.8.16+commit.07a7930e.Emscripten.clang"
  },
  "schemaVersion": "3.4.16",
  "updatedAt": "2025-03-06T12:31:53.906Z",
  "networkType": "ethereum",
  "devdoc": {
    "kind": "dev",
    "methods": {},
    "version": 1
  },
  "userdoc": {
    "kind": "user",
    "methods": {},
    "version": 1
  }
}