{
  "contractName": "YourContract",
  "abi": [
    {
      "inputs": [],
      "stateMutability": "nonpayable",
      "type": "constructor"
    },
    {
      "inputs": [],
      "name": "owner",
      "outputs": [
        {
          "internalType": "address",
          "name": "",
          "type": "address"
        }
      ],
      "stateMutability": "view",
      "type": "function"
    },
    {
      "stateMutability": "payable",
      "type": "receive"
    },
    {
      "inputs": [],
      "name": "transferAllToOwner",
      "outputs": [],
      "stateMutability": "nonpayable",
      "type": "function"
    }
  ],
  "bytecode": "0x608060405234801561000f575f80fd5b50335f806101000a81548173ffffffffffffffffffffffffffffffffffffffff021916908373ffffffffffffffffffffffffffffffffffffffff1602179055506102b88061005c5f395ff3fe60806040526004361061002c575f3560e01c806324e581be146100375780638da5cb5b1461004d57610033565b3661003357005b5f80fd5b348015610042575f80fd5b5061004b610077565b005b348015610058575f80fd5b50610061610169565b60405161006e91906101cb565b60405180910390f35b5f8054906101000a900473ffffffffffffffffffffffffffffffffffffffff1673ffffffffffffffffffffffffffffffffffffffff163373ffffffffffffffffffffffffffffffffffffffff1614610104576040517f08c379a00000000000000000000000000000000000000000000000000000000081526004016100fb90610264565b60405180910390fd5b5f8054906101000a900473ffffffffffffffffffffffffffffffffffffffff1673ffffffffffffffffffffffffffffffffffffffff166108fc4790811502906040515f60405180830381858888f19350505050158015610166573d5f803e3d5ffd5b50565b5f8054906101000a900473ffffffffffffffffffffffffffffffffffffffff1681565b5f73ffffffffffffffffffffffffffffffffffffffff82169050919050565b5f6101b58261018c565b9050919050565b6101c5816101ab565b82525050565b5f6020820190506101de5f8301846101bc565b92915050565b5f82825260208201905092915050565b7f4f6e6c7920746865206f776e65722063616e207472616e736665722066756e645f8201527f7300000000000000000000000000000000000000000000000000000000000000602082015250565b5f61024e6021836101e4565b9150610259826101f4565b604082019050919050565b5f6020820190508181035f83015261027b81610242565b905091905056fea26469706673582212201cc82fb1e639018fb07ca8299ed51f56db4a45918b9dccf5d9589c4402d760ca64736f6c63430008140033",
  "immutableReferences": {},
  "source": "// SPDX-License-Identifier: MIT\r\npragma solidity ^0.8.0;\r\n\r\ncontract YourContract {\r\n    address public owner;\r\n\r\n    constructor() {\r\n        owner = msg.sender;  // Set the owner to be the deployer of the contract\r\n    }\r\n\r\n    // Example function to transfer all funds (ETH) to the owner (admin address)\r\n    function transferAllToOwner() public {\r\n        require(msg.sender == owner, \"Only the owner can transfer funds\");\r\n\r\n        // Transfer all balance to the owner\r\n        payable(owner).transfer(address(this).balance);\r\n    }\r\n\r\n    // Fallback function to receive ETH\r\n    receive() external payable {}\r\n}\r\n",
  "sourcePath": "C:\\Users\\Admin\\Documents\\GitHub\\Group12-COS300049\\backend\\contracts\\Contract.sol",
  "compiler": {
    "name": "solc",
    "version": "0.8.20+commit.a1b79de6.Emscripten.clang"
  },
  "schemaVersion": "3.4.16",
  "updatedAt": "2025-03-16T04:36:53.723Z",
  "devdoc": {
    "kind": "dev",
    "methods": {},
    "version": 1
  },
  "userdoc": {
    "kind": "user",
    "methods": {},
    "version": 1
  }
}